:020000040800F2
:10000000403200246D0300086F3B00086B39000884
:100010006D3B000867060008DF6100080000000073
:10002000000000000000000000000000013E000889
:10003000B506000800000000813B0008353E0008BE
:100040008B0300088B0300088B0300088B03000858
:100050008B0300088B0300088B0300088B03000848
:100060008B0300088B0300088B0300088B03000838
:100070008B0300088B0300088B0300088B03000828
:100080008B0300088B0300088B0300088B03000818
:100090008B0300088B0300088B0300088B03000808
:1000A0008B030008BD3F00088B0300088B0300088A
:1000B0008B0300088B0300088B0300088B030008E8
:1000C0008B0300088B0300088B0300088B030008D8
:1000D0008B0300088B030008B5470008C1470008E0
:1000E0008B0300088B030008000000008B0300084E
:1000F0008B0300088B0300088B0300088B030008A8
:100100008B0300088B0300088B0300088B03000897
:100110008B0300088B0300088B0300088B03000887
:100120008B0300088B0300088B0300088B03000877
:100130008B0300088B0300088B0300088B03000867
:1001400000000000000000000000000000000000AF
:100150008B0300088B0300088B0300088B03000847
:100160008B0300088B0300088B0300088B03000837
:100170008B030008713B00088B030008000000009F
:100180008B0300088B0300088B0300088B03000817
:100190008B0300088B0300088B0300088B03000807
:1001A0008B0300088B0300088B030008000000008D
:1001B0008B0300088B0300088B0300088B030008E7
:1001C0008B0300088B030008000000000000000003
:1001D00000000000000000008B0300080000000089
:1001E000000000000000000000000000000000000F
:1001F00000000000000000008B0300088B030008D3
:100200008B0300088B030008000000008B0300082C
:100210008B0300088B0300088B0300088B03000886
:100220008B030008000000008B03000800000000A2
:100230008B0300088B030008000000008B030008FC
:100240008B0300088B0300088B0300088B03000856
:100250008B0300088B0300088B0300088B03000846
:100260008B0300088B0300088B0300088B03000836
:100270008B0300088B0300088B03000800000000BC
:100280008B0300088B0300088B0300088B03000816
:10029000000000008B0300088B0300080000000032
:1002A000000000008B0300088B0300088B0300088C
:1002B0008B0300088B0300088B0300088B030008E6
:1002C0008B0300088B0300088B03000800F002F882
:1002D00000F03CF80AA090E8000C82448344AAF1A4
:1002E0000107DA4501D100F031F8AFF2090EBAE8A2
:1002F0000F0013F0010F18BFFB1A43F0010318475A
:1003000080780000B0780000103A24BF78C878C127
:10031000FAD8520724BF30C830C144BF04680C600B
:10032000704700000023002400250026103A28BF53
:1003300078C1FBD8520728BF30C148BF0B60704757
:100340001FB507F0DBFB1FBD10B510BD00F056F95F
:100350001146FFF7F5FF05F055FF00F074F903B4FF
:10036000FFF7F2FF03BC00F077F900000A4880476E
:100370000A4880470A480047FEE7FEE7FEE7FEE737
:10038000FEE7FEE7FEE7FEE7FEE7FEE70548064973
:10039000064A074B70470000C1060008FD3E0008F2
:1003A000CD020008402C002440320024402E0024BE
:1003B000402E002453EA020C00F069802DE9F04B36
:1003C0004FF00006002B1FBFB3FA83F503FA05F4C4
:1003D00024FA05F65E4012BF1643B2FA82F502FA1D
:1003E00005F4C5F120051EBF22FA05FC44EA0C0401
:1003F000203556EA044C4FEA144418BF641C4FF0F1
:1004000000084FF00009904271EB030C39D300292A
:1004100019BFB1FA81F701FA07F6B0FA80F700FACE
:1004200007F6C7F120071EBF20FA07FC46EA0C06B4
:100430002037B6FBF4FCA7EB0507103F07F01F0BB6
:10044000CBF120062CFA06F60CFA0BFB44BFB346A0
:100450000026202FA4BF5E464FF0000B5BEA060C7F
:1004600008BF4FF0010B19EB0B0948EB0608ABFB7B
:10047000027C06FB02CC0BFB03CCC01B71EB0C0116
:10048000C1E70B46024641464846BDE8F08B13B52E
:100490004FF000004FF00001AFF30080BDE81C40BA
:1004A0007047032A40F2308010F0030C00F01580F2
:1004B00011F8013BBCF1020F624498BF11F801CB67
:1004C00000F8013B38BF11F8013BA2F1040298BFCC
:1004D00000F801CB38BF00F8013B11F0030300F036
:1004E0005780083AC0F0088051F8043B083A51F8A8
:1004F00004CBA0E80810F5E7121D5CBF51F8043BDF
:1005000040F8043BAFF30080D20724BF11F8013B51
:1005100011F801CB48BF11F8012B24BF00F8013BB3
:1005200000F801CB48BF00F8012B704702F0FF0331
:1005300043EA032242EA024200F002B84FF000020E
:1005400000B5134694469646203922BFA0E80C50C9
:10055000A0E80C50B1F12001BFF4F7AF090728BFA4
:10056000A0E80C5048BF0CC05DF804EB890028BF20
:1005700040F8042B08BF704748BF20F8022B11F049
:10058000804F18BF00F8012B7047704770477047C5
:1005900010B5203AC0F00B80B1E81850A0E8185010
:1005A000B1E81850A0E81850203ABFF4F5AF5FEA60
:1005B000027C24BFB1E81850A0E8185044BF18C905
:1005C00018C0BDE810405FEA827C24BF51F8043BAC
:1005D00040F8043B08BF7047D20728BF31F8023B00
:1005E00048BF11F8012B28BF20F8023B48BF00F894
:1005F000012B704700487047100100247546FFF733
:10060000F9FFAE4605006946534620F007008546CF
:1006100018B020B5FFF7BAFEBDE820404FF0000645
:100620004FF000074FF000084FF0000BAC46ACE86D
:10063000C009ACE8C009ACE8C009ACE8C00921F0C9
:1006400007018D46704710B50446AFF30080204681
:10065000BDE81040FFF783BE01491820ABBEFEE79E
:10066000260002007047FEE7002070470020704718
:1006700010B50E4C05490022204604F051FA0449F9
:10068000204604F03FFA002010BD00BF080F0024F0
:100690000807002410B5054C0146204604F032FA44
:1006A000204604F00AFA002010BD00BF0C170024F9
:1006B000002070477047EFF3108072B6FEE700002D
:1006C0000448816841F002018160016811F4005F13
:1006D000FBD0704704480258F8B5044600F054FBBC
:1006E0000546002C00F0B08094F83500022840F058
:1006F000AD802768AB4EB74238463CD0AA48874207
:10070000384638D0A9488742384634D0A84887426E
:10071000384630D0A748874238462CD0A648874272
:10072000384628D0A5488742384624D0A448874276
:10073000384620D0A348874238461CD0A24887427A
:10074000384618D0A1488742384614D0A04887427E
:10075000384610D09F48874238460CD09E48874282
:10076000384608D09D488742384604D09C48874286
:1007700040F0FB809A48016821F01E01016007F1FA
:1007800014006FF080010268B74201EA02010160C3
:1007900042D0F44887421CBFF34887423CD0F3481C
:1007A00087421CBFF248874236D0F24887421CBFBE
:1007B000F148874230D0F14887421CBFF048874259
:1007C0002AD0F04887421CBFEF48874224D0EF4828
:1007D00087421CBFEE4887421ED0EE4887421CBFAE
:1007E000EE48874218D0EC4887421CBFEC4887424D
:1007F00012D0EC4887421CBFEB4887420CD0EB4834
:1008000087421CBFEA48874206D0EA4887421CBF9D
:10081000E948874240F0BC80206E016821F4807175
:100820000160386820F001003860386810F0010F6E
:1008300010D000F0A9FA401B0628F6D320206065EE
:10084000032084F8350003E001208CE080206065FF
:10085000012085E02068B0421CBFC249884223D0F5
:10086000C14988421CBFC14988421DD0C049884245
:100870001CBFC049884217D0BF4988421CBFBF492E
:10088000884211D0BE4988421CBFBE4988420BD065
:10089000BD4988421CBFBD49884205D0BC49884239
:1008A0001CBFBE49884264D1A16DE26D3F2302F0B6
:1008B0001F0203FA02F28A60B04241D0A94988427D
:1008C0001CBFA94988423BD0A84988421CBFA849FF
:1008D000884235D0A74988421CBFA74988422FD0FB
:1008E000A64988421CBFA649884229D0A54988420A
:1008F0001CBFA549884223D0A44988421CBFA449F3
:1009000088421DD0A34988421CBFA449884217D001
:10091000A14988421CBFA249884211D0A1498842FE
:100920001CBFA14988420BD0A04988421CBFA049E6
:10093000884205D09F4988421CBF9F4988422CD1DC
:10094000D4E919014160E06E30B1016821F4807191
:100950000160D4E91C014160012084F835000020C9
:10096000002184F8341001B0F0BD6FF00E0138465C
:1009700009E78849884297D0874AA16D904294D070
:10098000E26D012302F01F0203FA02F24A6093E7CC
:100990008A4887423FF440AF43E788498842CFD036
:1009A000DAE700BF10000240280002404000024089
:1009B000580002407000024088000240A00002403F
:1009C000B8000240100402402804024040040240E3
:1009D000580402407004024088040240A00402400F
:1009E000B8040240002853D090F8351002294DD1A8
:1009F00001685B4A914229D05A4B99421CBF5A4B1D
:100A0000994223D0594B99421CBF594B99421DD052
:100A1000584B99421CBF584B994217D0574B99429B
:100A20001CBF574B994211D0564B99421CBF564B95
:100A300099420BD0554B99421CBF554B994205D05A
:100A4000544B99421CBF544B99423CD104239142D0
:100A500080F835301CBF4348814211D04248814262
:100A60001CBF424881420BD0414881421CBF4148D3
:100A7000814205D0404881421CBF404881420AD192
:100A8000086820F001000860002102E08021416533
:100A90000121084670473A4881421CBF39488142CB
:100AA000EED0394881421CBF38488142E8D03848EE
:100AB00081421CBF37488142E2D0374881421CBF87
:100AC00036488142DCE7354B9942BFD00A6822F0B4
:100AD0000E020A600A6822F001020A60304A91425E
:100AE00011D0304A91421CBF2F4A91420BD02F4A5D
:100AF00091421CBF2E4A914205D02E4A91421CBF02
:100B00002D4A914227D1016E01230A6822F4807296
:100B10000A60D0E9161202F01F0203FA02F24A60DC
:100B2000D0E919124A60C16E31B10A6822F48072AC
:100B30000A60D0E91C124A600021012280F83410BA
:100B400080F83520026D002AA3D080B5904700219F
:100B5000BDE880409DE7194A9142D4D0ECE700BF40
:100B600010000240280002404000024058000240AD
:100B70007000024088000240A0000240B80002401D
:100B8000100402402804024040040240580402407D
:100B90007004024088040240B8040240A0040240ED
:100BA000085402581C5402583054025844540258F5
:100BB000585402586C5402589454025880540258A5
:100BC000B0B5044600F0E0F805467448611C0078B2
:100BD00018BF044400F0D8F8401BA042FAD3B0BDBF
:100BE0002DE9FC4F604A0A274FF0000B4FF0010E31
:100BF0004FF0030A4FF00F094FF0000C002690420F
:100C00005A4A08BF092702444FEAB223082B38BFCB
:100C10004FEAB22700970A6832FA06F308BFBDE828
:100C2000FC8F0EFA06F312EA030500F096804A687C
:100C300002F00304A4F10108B8F1010F18D8D0F8AC
:100C40000890CF680AFA0CF829EA080807FA0CF7A6
:100C50004FF00F0947EA08078760C2F3001707FA49
:100C600006F8476827EA030343EA0803436001E004
:100C7000032C1DD0C7680AFA0CF3022C27EA0303E1
:100C80008F6807FA0CF743EA0703C36010D1394CA9
:100C90000BF01C0209FA02F304EA56040444276A22
:100CA00027EA03030F6907FA02F21A4322624A682D
:100CB000076802F003030AFA0CF412F4403F03FA47
:100CC0000CF327EA040443EA0403036045D0974A7F
:100CD0000BF00C0409FA04F71346126842F0020202
:100CE0001A601A68244B02F0020298460192019A97
:100CF00026F00302D358BB43009F07FA04F44FF0D9
:100D0000B047234342F808303A684C6842EA05038A
:100D100014F4801F08BF22EA0503154A14F4001FCB
:100D20003B601746126842EA050308BF22EA050342
:100D300014F4003F3B60D7F8802042EA050308BF67
:100D400022EA050314F4803FC7F88030FA6F42EAC4
:100D5000050308BF22EA0503FB670BF1040B0CF146
:100D6000020C013657E700BF002402580000FEA71E
:100D700004000058FCFFFF7F08040058002A08BF49
:100D8000090481617047000004488068704700BF13
:100D90000248017882681144816070470000002495
:100DA00080B5032000F0F4F801F0A6FE0E490F4BC9
:100DB0000A68C2F3032209689A5C01F00F01595CCA
:100DC00002F01F02D0400A4A01F01F011060C84023
:100DD000084908600F2000F00FF808B1012080BD1D
:100DE00000F092F8002080BD18440258167B0008DD
:100DF0000C00002410000024B0B58AB004460F286F
:100E00002CD8192021460022002500F09FF8192037
:100E100000F08EF8154804601548016841F00101A2
:100E2000016001A9006800F001000290029802A888
:100E300001F0FCFD01F04EFE104C0E490E4A400040
:100E400040F2E733B0FBF4F00138C1E90020084676
:100E5000C1E902530D6102F085F908B1012002E0F9
:100E6000044802F0B1F90AB0B0BD00BF040000248C
:100E7000F0440258CC1E00240000014040420F0004
:100E800010B5427812490A608A6822F001028A602D
:100E900042684A60C37A027B847A90F800C090F876
:100EA00008E01B0643EA0272437A42EAC442447BEA
:100EB00042EA8442847BC07B42EA444242EA0040E8
:100EC00040EA032040EA4E0040EA0C00886010BD72
:100ED00098ED00E00B48BFF35F8F016821F480318B
:100EE0000160002101677047064940F00100086772
:100EF000086840F480300860BFF34F8FBFF36F8FF6
:100F0000704700BF24ED00E081B00848002201686E
:100F100041F0020101600F21006800F00200009022
:100F200000986FF0010001B000F010B8F4440258CE
:100F3000002808DB00F01F010122400902FA01F13C
:100F4000014A42F82010704700E100E010B5164B4E
:100F50001B68C3F3022E0EF1040CAEF103048EF0F5
:100F60000703BCF1070F4FF0010C38BF0024042B1E
:100F700028BF04230CFA03F3013B19400CFA04F3D5
:100F8000013BA1401A401143BDE8104005F028B9CB
:100F900005494FF6FF030A681A4060F30A22034826
:100FA00010430860704700BF0CED00E00000FA0538
:100FB0000121084AC0F8D814002180F8CC14006838
:100FC000816941F000618161416D114341650020FB
:100FD000704700BF030000107047006841620020A6
:100FE0007047D0F800C00029DCF824001BD080B581
:100FF000DCF82830A1F1010E00EB1343002006E0DD
:101000000CEB81010130D1F8041103EB1143C1B2A3
:101010008E45F5D80CEB8E0043EA0241C0F804116E
:10102000BDE8804003E040EA0240CCF82800002000
:101030007047D0F8E00403F0D5BF01EBC10200EB2C
:101040008202D0F8E004126A03F03ABF01EBC10259
:1010500000EB8202D0F8E004D2F8602203F088BFEF
:10106000D0F8E00403F0C0BF01F00F0211F0800FD0
:1010700002EBC20200EB820303F1140208BF03F586
:1010800015720068114604F0E1BE10B5044601F087
:101090000F0011F0800F09D100EBC001002204EB1A
:1010A000810181F8552201F5157106E000EBC001C0
:1010B000012204EB81014A751431087094F89404FC
:1010C000012801D1022008E0012084F8940420685E
:1010D00004F034FC002084F89404C0B210BDB0B514
:1010E000044601F00F002279904201D9012523E046
:1010F000090609D400EBC001002204EB810181F84C
:10110000552201F5157106E000EBC001012204EB48
:1011100081014A751431002508708D7094F894048B
:10112000012801D1022507E0012084F894042068F9
:1011300004F066FD84F89454E8B2B0BD01F00F01EC
:1011400001EBC10100EB8100D0F86802704710B5D7
:10115000044601F00F0011F0800F09D100EBC0012F
:1011600004EB810C00218CF855120CF5157108E088
:1011700000EBC00104EB810C01218CF815100CF17F
:1011800014016FF3DF220B718A6008704A780AB18C
:10119000C0B24883022B04BF0020487194F8940425
:1011A000012801D1022008E0012084F8940420687D
:1011B00004F0FAFA002084F89404C0B210BD80B59F
:1011C00001F00F0E0EEBCE0100EB810C0021CCE9FB
:1011D0009823CCF868128CF855128CF854E20CF570
:1011E00015718379012B08BFCCF870221A4600686C
:1011F00004F03EFD002080BDB0B50446007901F04A
:101200000F05854201D901202BE0080609D401EB26
:10121000C100002104EB800080F8551200F5157123
:1012200007E005EBC500012104EB8000417500F1EA
:10123000140101200D70887094F89424012A01D1C2
:1012400002200EE084F89404206804F0F2FC2DB92A
:10125000A179206804F29C4204F0A6FC002084F8E6
:101260009404C0B2B0BD80B501F00F0E0EEBCE01FC
:1012700000EB810C614601F814EF4FF0000E01F114
:101280000C07A7E80C4001234B708379012B08BFA2
:10129000CCF830201A46006804F0EAFC002080BD3B
:1012A0002DE9F04F89B005688246284604F06CFEAF
:1012B00010B109B0BDE8F08FDAF8000004F090FE3C
:1012C0000028F6D0D5F80808C0F30D20CAF8D404D9
:1012D000DAF8000004F084FE0146DAF8000011F0AC
:1012E000020F1EBF416901F00201416105F5006175
:1012F000049104F075FE0146DAF80000059511F03E
:10130000100F40D0816921F0100181612C6AC4F373
:10131000434004F00F0506281DD002282CD147F6C3
:10132000F070044028D005EBC5000AEB8005D5F825
:101330006012C4F30F12059804F056FED5F860024F
:10134000D5F8681200EB1410C5F8600201EB141018
:10135000C5F8680210E005980AF29C41082204F0E2
:1013600043FE05EBC5000AEB8000D0F86812C4F319
:101370000A121144C0F86812DAF80000816941F0DD
:1013800010018161059D04F02BFE10F4002F00F088
:10139000DF80DAF8000004F002FE06460AF29C4004
:1013A0000AF51D744FF430684FF0000B0890002EC2
:1013B00000F0CE80F00700F0A880DAF800005FFAB5
:1013C0008BF9494604F004FE074610F0010F49D09E
:1013D00005EB080001218160DAF8000008EB00014C
:1013E000036C8A689AF80650012D14D115071ED493
:1013F000950634D4059D12F0280F33D1AC46E34D49
:10140000AB42C0F08E8012F4004200F08A804FF4AC
:101410000040654614E0DD4DFF35AB4212D1059D1D
:1014200010040BD4900644BF2020886012E0D748F7
:10143000059D834216D312F4004013D04FF40040B0
:1014400088600FE0B8F5306F059D04BFDAF86412CC
:10145000002961D050464946FFF7F8FD02E0202000
:101460008860059D380723D505EB08000821C74B88
:101470008160DAF80010013B0A6C08EB010081681A
:101480009A4212D9090444BF4FF40041816050468A
:1014900000F09BFB9AF80600012809D1DAF8000059
:1014A000089A012104F080FB02E0504600F08DFB19
:1014B000F80642BF05EB080010218160B80717D578
:1014C000686910F0800F1FBF0499486840F480607D
:1014D000486014F81D0C012806D10020494604F884
:1014E0001D0C504600F0A7FA05EB080002218160B0
:1014F000B80642BF05EB080020218160B80442BF56
:1015000005EB08004FF400518160243408F12008F5
:1015100076080BF1010B4AE70021089A04F044FB1E
:1015200098E722680969B8F5306F65466FF3DF41C7
:10153000A2EB010144F80C1C8CD1DAF864222AB128
:10154000DAF860020844CAF8600283E70121E4E7A0
:10155000DAF8000004F044FD049E10F4802F00F03F
:10156000CC80DAF8000004F013FD07460AF29C4034
:101570000023029005F510600690BBE0F80700F02C
:10158000B780DAF80000D9B20793089104F00EFD95
:10159000044610F0010F28D0079B716B012203F065
:1015A0000F0002FA00F021EA00007063069800EBD9
:1015B000431082609AF80600012812D103EBC300A1
:1015C000002B0AEB8000D0E907121144016208D118
:1015D000DAF8240028B9DAF80000029A012104F0B0
:1015E000E3FA08995046FFF728FD079B200741BF03
:1015F000069800EB431008218160E00641BF069881
:1016000000EB431010218160600641BF069800EB9B
:10161000431040218160A00718D52846194604F0E0
:1016200080FC079B03EBC3000AEB800010F8171F38
:10163000012906D1002101700899504600F0F7F900
:10164000079B0698022100EB4310816020064FD5CE
:1016500003EBC3000AEB800BD94659F8240FC846A8
:1016600058F8042F904243D35BF81C1FDAF800406F
:10167000851A039757468D420BF1040688BF0D4625
:1016800004EB431101F5106A17E0BD79DBF8003077
:1016900031680095851A20469D4288BF1D46089AEC
:1016A000ABB204F087FD306828443060D8F8000001
:1016B0004219C8F80020D9F80000DAF81830E91CFF
:1016C0009BB2B3EB910F28BF9042DED8BA46059D7E
:1016D000DDE90376079B90420AD803F00F00012151
:1016E00001FA00F0D4F8341821EA0000C4F83408F4
:1016F0007F080133002F7FF441AFDAF8000004F0D7
:101700006FFC002802DBDAF8000018E0706820F0B7
:10171000010070609AF8CC04012807D10020002154
:101720008AF8CC045046FFF757FC02E0504600F020
:1017300030FADAF80000416901F00041416104F03B
:101740004FFC10F4006F02D1DAF800000CE0B06832
:1017500010F0010F1CBF504600F060FADAF80000EC
:10176000416901F40061416104F03AFC10F0006F3E
:101770001AD0DAF80000416901F0006141619AF87D
:10178000CC1429B1504600F049FA0DE00B30544F0B
:1017900001218AF8CC140121406DC0F38300CAF8FE
:1017A000D0045046FFF718FCDAF8000004F018FCEB
:1017B00010F4805F02D1DAF8000055E0D5F8040893
:1017C000102120F00100C5F80408DAF8000004F048
:1017D000A8FB9AF8041005F510604FF67F3214E06C
:1017E00082600139036823F400130360C0F8082203
:1017F000D0F8003223F40013C0F80032D0F80032E1
:1018000043F00063C0F8003220300029E8D1F069CD
:1018100040F00110F0619AF80F0040B1D6F8840052
:1018200040F00B00C6F8840006F1440006E0706941
:1018300042F22B010843706106F1100001680AF2C0
:101840009C4241F00B010160306820F4FE60306082
:101850009AF80610DAF8000004F0A6F9DAF80000A9
:10186000416901F48051416104F0BAFB0146DAF8A4
:10187000000011F4005F1AD003F0DEFFDAF8000078
:1018800004F074FB8AF80700DAF8004001F0F6F87B
:101890009AF807200146204604F014FC504600F058
:1018A00065F9DAF80000416901F40051416104F082
:1018B00097FB10F0080F02D1DAF8000008E050465C
:1018C00000F06BF9DAF80000416901F008014161AC
:1018D00004F086FB10F0800F17D00598012440F229
:1018E0007B250146806920F08000886109E01AF8B4
:1018F0000500012803D1E1B25046FFF7B5FB2435BE
:1019000001349AF804008442F1D3DAF8000004F0BC
:1019100067FB10F4801F02D1DAF8000022E005987E
:101920000AF13B040126012700F5126510E0286842
:10193000B0F1FF3F09DC6078012806D147F0800054
:101940002670C1B25046FFF78FFB24342035013793
:101950009AF804008742EAD3DAF80000416901F4FA
:1019600080114161059C04F03BFB10F4001F02D183
:10197000DAF8000032E09AF804200AF51F7004F546
:10198000326101230127974222D20E68B6F1FF3F50
:1019900009DC0578012D02BFDAF8D45485EA164631
:1019A0005FEAC67603D0243020310137EBE7059E8D
:1019B00000F8013C3546B66946F08006AE616E69B6
:1019C00016F0800FEFD10499486840F40070486029
:1019D000DAF80000416901F40011416104F000FBF4
:1019E00010F0804F02D1DAF8000008E05046FFF70F
:1019F00020FBDAF80000416901F08041416104F008
:101A0000EFFA10F0040F3FF454ACDAF8000050F88D
:101A1000044F14F0040F05D05046FFF721FBDAF80D
:101A200000000430016821430160FFF742BCD0F898
:101A3000E00403F034BBD0F8E00403F048BBBCB5CD
:101A4000044600284BD094F8950428B9002084F867
:101A50009404204600F056F8032084F8950420688A
:101A600004F09CF894E80F00257C009503F0F4FE48
:101A700090BB20680021002504F0E2FA60BB2279C7
:101A800004F12E01012300200EE001F81A0C01F8E8
:101A9000193C088001F8165C41F8125C41F80E5CB4
:101AA00041F80A5C243101308242EED104F515710F
:101AB0000022002307E00B704A700A71C1E902227C
:101AC0000A61243101339842F5D194E80F00257C56
:101AD000009503F095FF28B1022084F895040120B9
:101AE00002B0B0BD00206074012084F89504207B12
:101AF000012804BF2046FFF75BFA206803F072FF5D
:101B00000020EDE710B5B0B0044602A8B821FEF7FA
:101B100015FD20681349884221D1002003904FF41D
:101B2000802002904FF44010239002A800F0DCF9CE
:101B300008B1FEF7C0FD00F0ADF80B4800220168C7
:101B400041F0007101600521006800F00070019013
:101B500001984D20FFF7FAF94D20FFF7E9F930B071
:101B600010BD00BF00000440D844025810B5C17930
:101B7000044621B1022918BFFEF79DFD0121D4F8CA
:101B8000E00403F01BFBD4F8E004BDE8104003F0D0
:101B9000CBBAD0F8E00403F0F8BAD0F8E00403F0D0
:101BA000FEBA10B5044690F89404012801D1022031
:101BB00009E00120617484F89404206804F071FA4B
:101BC000002084F89404C0B210BDD0F8E02400F2E4
:101BD0009C41104603F0FEBA10B5044690F89404F8
:101BE000012801D1022016E02068012184F8941414
:101BF000C16811F0400F06D0617B012902BF816BE3
:101C000041F48031816304F063F9206803F0DCFE65
:101C1000002084F89404C0B210BD000010B5044642
:101C2000D0F8E00403F018FB2068D0F8001E41F063
:101C30000101C0F8001EE07A20B10348016841F0BC
:101C40000601016010BD00BF10ED00E0B0B5144DFD
:101C50002A68296812F0040F05D101F00701081A5B
:101C600018BF0120B0BD21F0070108432860FFF72D
:101C70008BF8044655F8080C10F4005F1CBF0020D8
:101C8000B0BDFFF781F8001BB0F57A7F84BF01205B
:101C9000B0BDEFE70248016841F080710160704714
:101CA0000C48025880B500F0E9FE0549054A09686C
:101CB000C1F30211515C01F01F01C84080BD00BF9B
:101CC00020440258167B0008B0B53D4DAB6AAA6AA5
:101CD000E96AEC6BC1F30011C2F305324942002AF4
:101CE00001EAD4016FF35F3100EE101AB8EE400A3A
:101CF0000BD003F00303022B0BD06BB9296811F052
:101D0000200F0CD19FED311A13E00021C0E9001122
:101D100053E09FED2D1A0CE09FED2A1A09E0296887
:101D20002B4BC1F3C10123FA01F101EE101AB8EEF9
:101D3000411AA96BAB6B9FED273A04EE102AB7EE60
:101D4000006A6FF35F2102EE101AC3F34621B8EE6A
:101D5000422AB8EE444A05EE101A00EE032AB8EE05
:101D6000450A81EE041A32EE062A30EE060A21EE0A
:101D7000021A81EE000ABCEEC00A80ED000AA96BCF
:101D8000C1F3064100EE101AB8EE400A30EE060A22
:101D900081EE000ABCEEC00A80ED010AA96BC1F316
:101DA000066100EE101AB8EE400A30EE060A81EE27
:101DB000000ABCEEC00A10EE101A8160B0BD00BF70
:101DC000004402580024744A001BB74B0024744C92
:101DD0000090D00300000039B0B53D4DAB6AAA6A4F
:101DE000E96A6C6CC1F30021C2F305524942002A32
:101DF00001EAD4016FF35F3100EE101AB8EE400A29
:101E00000BD003F00303022B0BD06BB9296811F040
:101E1000200F0CD19FED311A13E00021C0E9001111
:101E200053E09FED2D1A0CE09FED2A1A09E0296876
:101E30002B4BC1F3C10123FA01F101EE101AB8EEE8
:101E4000411A296C2B6C9FED273A04EE102AB7EE4D
:101E5000006A6FF35F2102EE101AC3F34621B8EE59
:101E6000422AB8EE444A05EE101A00EE032AB8EEF4
:101E7000450A81EE041A32EE062A30EE060A21EEF9
:101E8000021A81EE000ABCEEC00A80ED000A296C3D
:101E9000C1F3064100EE101AB8EE400A30EE060A11
:101EA00081EE000ABCEEC00A80ED010A296CC1F384
:101EB000066100EE101AB8EE400A30EE060A81EE16
:101EC000000ABCEEC00A10EE101A8160B0BD00BF5F
:101ED000004402580024744A001BB74B0024744C81
:101EE0000090D003000000392DE9F0470446C07887
:101EF000AF4F000722D5606E4FEA3051032908D852
:101F0000DFE801F002090F17F96941F40031F961C6
:101F10000FE0012613E004F10800022101F062FE47
:101F200004E004F12800022101F0E0FE064630B989
:101F3000606E396C21F440110843386400266078E3
:101F4000BA46C00701D135462AE0A06D04280BD857
:101F50003546DFE800F0030C12181800F869354622
:101F600040F40030F8610EE00125012719E004F18A
:101F70000800002101F036FE04E004F128000021F1
:101F800001F0B4FE0546002D2F460AD1DAF84000D4
:101F9000A16D0025524620F007000843CAF8400012
:101FA0003746607840072FD5D4F8A4004FEA705028
:101FB00005280CD8DFE800F0030E141A1A1ADAF814
:101FC0001C00514640F40030CAF81C000EE0012508
:101FD00001261AE004F10800002101F003FE04E0EC
:101FE00004F12800002101F081FE0546002D2E4657
:101FF0000BD1DAF84800D4F8A4100025524620F49A
:1020000060000843CAF848003E46607800072FD5B4
:10201000D4F8A8004FEA306005280CD8DFE800F0BB
:10202000030E141A1A1ADAF81C00514640F4003054
:10203000CAF81C000EE0012501271AE004F108008F
:10204000002101F0CFFD04E004F12800002101F09F
:102050004DFE0546002D2F460BD1DAF84800D4F886
:10206000A8100025524620F0E0600843CAF8480056
:102070003746E078800726D5E06C4FEA3010032819
:102080000BD8DFE800F013020D13DAF81C005146FC
:1020900040F40030CAF81C0008E00125012613E0D6
:1020A00004F10800022101F09DFD0546002D2E4699
:1020B0000AD1DAF83C00E16C0025524620F03000ED
:1020C0000843CAF83C003E466078C0062DD5E06D56
:1020D0004FEA303004280CD8DFE800F0030E141A61
:1020E0001A00DAF81C00514640F40030CAF81C000F
:1020F0000EE00125012719E004F10800002101F09C
:1021000071FD04E004F12800002101F0EFFD054617
:10211000002D2F460AD1DAF84000E16D0025524625
:1021200020F4E0400843CAF8400037466078800653
:1021300025D5206E4FEA304005280AD8DFE800F0A8
:1021400012030C12121204F10800012101F04AFDE1
:1021500007E00125012613E004F12800012101F028
:10216000C5FD0546002D2E460AD1DAF84000216E45
:102170000025524620F4E0200843CAF840003E46BD
:10218000607840062AD5D4F8AC004FEA30700528B4
:102190000AD8DFE800F015030F15151504F1080043
:1021A000012101F01FFD0AE00125012717E000BF12
:1021B0001044025804F12800012101F097FD054662
:1021C000002D2F460BD1DAF84800D4F8AC100025CA
:1021D000524620F0E0400843CAF84800374660788D
:1021E000000622D5E06E98B1B0F1005F0AD0B0F1E0
:1021F000805F2ED1DAF81C00514640F40030CAF856
:102200001C0005E004F10800012101F0EBFC05468B
:10221000002D2E460AD1DAF84000E16E0025524624
:1022200020F040500843CAF840003E46E078C0071E
:1022300002D1B046574624E0A06C574603280BD87D
:10224000DFE800F014020E14F86940F40030F86181
:102250000CE001250126E9E701254FF0010810E017
:1022600004F10800022101F0BDFC0546002DA8463E
:1022700007D1F86BA16C0025B04620F0030008439D
:10228000F863A078400601D4474618E0D7F8F00379
:1022900040F48070C7F8F003FEF776FD0646D7F8E5
:1022A000F00310F4807F07D1FEF76EFD801B6428D9
:1022B000F5D90325032702E0002D2F4612D0207800
:1022C000C00752D0A06F4FEAF000052837D8DFE8EA
:1022D00000F03F03393F3F3F04F10800012101F0C6
:1022E00081FC34E0DAF86010D4F8B0005346414085
:1022F00011F4407F0BD0196E1A6E42F4803221F433
:1023000040711A661A6E22F480321A661966B0F5A8
:10231000807F40F06982FEF737FD064641F288393A
:1023200003250327DAF86000534610F0020F40F04F
:102330005982FEF729FD801B4845F3D9BFE70125E7
:10234000012613E004F12800012101F0CFFC05462D
:10235000002D2E460AD1DAF84400A16F002552461E
:1023600020F038000843CAF844003E462078800731
:1023700023D5606F05280AD8DFE800F012030C129D
:10238000121204F10800012101F02CFC07E00125E4
:10239000012713E004F12800012101F0A7FC054604
:1023A000002D2F460AD1DAF84400616F002552460D
:1023B00020F007000843CAF8440037462078400759
:1023C00025D5D4F8900005280AD8DFE800F01203DC
:1023D0000C12121204F10800012101F003FC07E0C5
:1023E0000125012614E004F12800012101F07EFC02
:1023F0000546002D2E460BD1DAF84800D4F890108F
:102400000025524620F007000843CAF848003E461F
:102410002078800627D5D4F88C004FEA3070052844
:102420000AD8DFE800F012030C12121204F10800BF
:10243000002101F0D7FB07E00125012714E004F19A
:102440002800022101F052FC0546002D2F460BD139
:10245000DAF84400D4F88C100025524620F0E04011
:102460000843CAF8440037462078400627D5D4F8F8
:1024700098004FEAB02005280AD8DFE800F01203E0
:102480000C12121204F10800002101F0ABFB07E06E
:102490000125012614E004F12800022101F026FCA8
:1024A0000546002D2E460BD1DAF84800D4F89810D6
:1024B0000025524620F4E0500843CAF848003E4642
:1024C0002078000627D5D4F89C004FEA7030052804
:1024D0000AD8DFE800F012030C12121204F108000F
:1024E000002101F07FFB07E00125012714E004F142
:1024F0002800022101F0FAFB0546002D2F460BD1E2
:10250000DAF84800D4F89C100025524620F46040C8
:102510000843CAF848003746206810F0080F17D063
:10252000D4F88010B1F5805F0AD104F128000221AF
:1025300001F0DCFB002818BF01272068D4F88010C8
:10254000DAF84420534622F440521143CAF84410AA
:10255000C10617D5D4F89410B1F5807F0AD104F1E3
:102560002800022101F0C2FB002818BF01272068C3
:10257000D4F89410DAF84820534622F440721143FC
:10258000CAF84810000322D5D4F8A000B0F5003FE7
:102590000FD0B0F5803F06D088BB04F108000021C1
:1025A00001F020FB04E004F12800022101F09EFB71
:1025B0000546002D2E460BD1DAF84800D4F8A010BD
:1025C0000025524620F440300843CAF848003E46F1
:1025D000A07840072AD5D4F88400B0F5401F17D062
:1025E000B0F5001F0ED0B0F5801F40F0F680DAF88D
:1025F0001C00514640F40030CAF81C0008E00125D8
:102600000126E5E704F12800012101F06FFB0546F2
:10261000002D2F460BD1DAF84400D4F884100025A1
:10262000524620F440100843CAF844003746A078C8
:10263000C00701D13E4622E0206DB0F5803F08D0B2
:10264000D8B9DAF81C00514640F40030CAF81C0032
:1026500005E004F10800022101F0C4FA0546002D4E
:102660002E460CD1DAF83C00216D0025524620F4AC
:1026700080300843CAF83C00DCE7012501262168C8
:1026800011F0005F01D1606809E004F12800022127
:1026900001F02CFB002818BF0126D4E900108A03A2
:1026A0001AD5E26F6FF0010303EB3223022B0BD339
:1026B0004FEA322343B1012B40F09280DAF81C300C
:1026C00043F40033CAF81C303DB9DAF8443023F43F
:1026D00040731A43CAF844203546CA0207D5DAF8CF
:1026E0004020236F22F000421A43CAF840208A0299
:1026F00007D5DAF84020A36E22F080721A43CAF898
:1027000040204A000CD5DAF8002022F40042CAF832
:102710000020D4F8B420DAF800301A43CAF80020B8
:10272000B1F1FF3F07DCDAF83C20636D22F0405244
:102730001A43CAF83C20090208D5DAF84410D4F844
:10274000882021F440011143CAF84410C10708D081
:1027500004F10800002101F045FA002818BF0546E1
:102760006068810708D504F10800012101F03AFAF8
:10277000002818BF05466068410708D504F1080025
:10278000022101F02FFA002818BF054660680107F2
:1027900008D504F12800002101F0A8FA002818BF8C
:1027A00005466068C10608D504F12800012101F042
:1027B0009DFA002818BF05466068800603D44DB115
:1027C0000120BDE8F08704F12800022101F08EFA13
:1027D0002843F5D10020BDE8F0870125012726E731
:1027E00001257AE7D4F8B000196800F4407200259A
:1027F000B2F5407F21F47C5102BF054A02EA101273
:1028000011436FF31F301960196E084318663BE5DA
:10281000CFFFFF002DE9F84388460446002800F06A
:10282000FD80954B186800F00F0040450BD21868EA
:1028300020F00F0040EA08001860186800F00F0050
:10284000404540F0EB802068E34F10F0040F0AD0C1
:102850002169BA6902F07002914281BFBA6922F01F
:1028600070021143B96101070AD56169FA6902F082
:102870007002914281BFFA6922F070021143F9613E
:10288000C1060AD5A169FA6902F4E062914281BFEA
:10289000FA6922F4E0621143F96181060AD5E1691F
:1028A0003A6A02F07002914281BF3A6A22F07002E5
:1028B0001143396281070AD5E168BA6902F00F0253
:1028C000914281BFBA6922F00F021143B961C10779
:1028D00038D0B869A16820F470600843B8616068B6
:1028E000032806D0022809D1396811F4003F0ED11F
:1028F00094E0396811F0007F09D18FE03968012830
:1029000002D1C90503D489E0490740F187803969BC
:10291000994621F0070108433861FEF735FA06466B
:1029200041F288353869616800F03800B0EBC10FBA
:1029300006D0FEF729FA801BA842F3D903206EE0E7
:1029400020684B4681070AD5E168BA6902F00F0298
:1029500091423FBFBA6922F00F021143B961196871
:1029600001F00F0141450AD9196821F00F0141EA30
:1029700008011960196801F00F0141454ED1410766
:102980000AD52169BA6902F0700291423FBFBA6963
:1029900022F070021143B96101070AD56169FA6931
:1029A00002F0700291423FBFFA6922F070021143B7
:1029B000F961C1060AD5A169FA6902F4E06291429F
:1029C0003FBFFA6922F4E0621143F96180060AD53B
:1029D000E069396A01F0700188423FBF396A21F02D
:1029E00070010843386200F087F8B969414A304BFA
:1029F000C1F30321515C01F01F01C840B96918609F
:102A000001F00F01515C01F01F01C8402949086025
:102A100005480068BDE8F843FEF7EEB90120C0B2F2
:102A200001B0BDE8F08300BF040000243F22026033
:102A30001E4A52F8083C03F007034360136803F48E
:102A400070638360136803F00F03C360136803F0BF
:102A500070030361536803F070034361536803F428
:102A6000E0638361926802F07002C261024800680C
:102A700000F00F00086070470020005280B500F0A1
:102A80003BF80A491B4B0A68C2F3032209689A5CA7
:102A900001F00F01595C02F01F02D040044A01F01E
:102AA0001F011060C8400349086080BD18440258E7
:102AB0000C0000241000002480B5FFF7DFFF0C4954
:102AC0000C4A0968C1F30211515C01F01F01C840B2
:102AD00080BD00BF80B5FFF7D1FF0549054A0968F1
:102AE000C1F30221515C01F01F01C84080BD00BF4D
:102AF0001C440258167B000837490869C0F3C2001D
:102B0000032811D0022804BF3548704750B90A681D
:102B1000374812F0200F1FBF0968C1F3C101C84038
:102B2000704770472D487047D1F828C0886ACB6A33
:102B30004A6B03F00103C0F305105B42002803EA6F
:102B4000D2026FF35F3200EE102AB8EE400A0BD0CB
:102B50000CF00302022A09D05AB90A6812F0200FB9
:102B60000AD19FED221A11E0002070479FED1E1A36
:102B70000CE09FED1C1A09E00A681D4BC2F3C1026C
:102B800023FA02F201EE102AB8EE411A0A6B096B21
:102B90009FED183A04EE100AB7EE005A6FF35F2269
:102BA00002EE102AB8EE422AC1F34620B8EE444A9B
:102BB00000EE032A013081EE040A32EE051A02EE1D
:102BC000100AB8EE422A20EE010A80EE020ABCEE9C
:102BD000C00A10EE100A70470044025800093D0078
:102BE00000366E010024744A001BB74B0024744C5D
:102BF0000090D00300000039F8B50446002800F02A
:102C00006C812078D14EC00722D12078800740F116
:102C10008F803169B06A11F038013ED0182908BFA1
:102C20005FEA807039D0E068316800286FD021F009
:102C3000190108433060FEF7A7F80546306810F028
:102C4000040F45D1FEF7A0F8401B0228F6D9B3E1E6
:102C50003169B06A01F03801102916D0182904BF73
:102C600000F00300022810D06068C8B3B0F5803FC0
:102C700007D03168B0F5A02F40F08A8141F4802060
:102C80003060306840F4803088E1306810F4003FF4
:102C9000BBD060680028B8D11FE13168E06811F04E
:102CA000040F02D0002800F01881316821F01901CA
:102CB00008433060FEF768F80546306810F0040FEE
:102CC00006D1FEF761F8411B03200229F5D974E112
:102CD0007068216920F0FE4040EA0160706027E0E2
:102CE000306820F480303060306820F4802030601C
:102CF000FEF74AF80546306810F4003F3FF485AF10
:102D0000FEF742F8411B03206429F4D955E121F074
:102D100001003060FEF738F80546306810F0040F07
:102D200006D0FEF731F8411B03200229F5D944E112
:102D30002078C00630D53169B06A01F03801082921
:102D40001BD0182904BF00F00300012815D0E16949
:102D50003068002900F0E78040F080003060FEF726
:102D600013F80546306810F4807F0ED1FEF70CF89A
:102D7000411B03200229F5D91FE1306810F4807F40
:102D80001CBFE069802840F0A880F068216A20F02C
:102D90007C5040EA0160F0602078000723D561692B
:102DA000706F79B140F001007067FDF7EDFF0546E7
:102DB000706F10F0020F16D1FDF7E6FF401B0228DE
:102DC000F6D9F9E020F001007067FDF7DDFF054658
:102DD000706F10F0020F06D0FDF7D6FF411B0320E5
:102DE0000229F5D9E9E02078800623D5A169306869
:102DF00079B140F480503060FDF7C6FF0546306879
:102E000010F4005F16D1FDF7BFFF401B0228F6D972
:102E1000D2E020F480503060FDF7B6FF0546306800
:102E200010F4005F06D0FDF7AFFF411B032002291D
:102E3000F5D9C2E02078400751D4676A002F00F02E
:102E40003581306900F03800182840F08180B16A7F
:102E5000306B012F41D0A26A01F0030393423CD1B1
:102E6000E26AC1F30511914237D1226B01466FF33B
:102E70005F21013A914230D1C0F34621626B013AA1
:102E800091422AD1C0F30641A26B013A914224D16A
:102E9000C0F30660E16B013988421ED1706BA16CF2
:102EA000C0F3CC00814200F00181F06A20F0010003
:102EB000F062FDF769FF0546FDF766FFA842FBD00B
:102EC000706B4FF6F8718843A16C40EAC1007063E3
:102ED000F06A40F00100F062E8E001206DE0D6F811
:102EE000000440F48070C6F80004FDF74DFF05466D
:102EF000D6F8000410F4807F05D1FDF745FF401B94
:102F00006428F5D958E0A068002859D0012806D0D7
:102F1000316F052840F0CC8041F004003067306FFD
:102F200040F00100CAE020F080003060FDF72CFF87
:102F30000546306810F4807F3FF42EAFFDF724FF84
:102F4000411B03200229F4D937E000BF0044025896
:102F5000306820F080703060FDF716FF0546022FC4
:102F60000AD1306810F0007F43D0FDF70DFF411B00
:102F700003200229F5D920E0306810F0007F00F02E
:102F80009580FDF701FF411B03200229F4D914E0CD
:102F900021F480303060306820F480203060FDF70C
:102FA000F3FE0546306810F4003F7FF42EAEFDF7C7
:102FB000EBFE401B6428F5D90320C0B201B0F0BD80
:102FC000306F20F001003067306F20F00400306770
:102FD000FDF7DAFE054641F28837306F10F0020F38
:102FE0003FF42BAFFDF7D0FE411B0320B942F4D9CB
:102FF000E3E7B06A40F2F33104F130034FF4FE0727
:103000008843D4E90A12084340EA0210B0620FCBA9
:103010007F3100F2FF107F3249026FF35F2007EA31
:10302000024289B2084303F17F0110434FF0FE4290
:1030300002EA016108434FF6F8713063F06A20F04C
:103040000100F062706B8843A16C40EAC1007063BC
:10305000F06A216C20F00C000843F062F06A616CA9
:1030600020F002000843F062F06A40F48030F06221
:10307000F06A40F40030F062F06A40F48020F062C0
:10308000F06A40F00100F062306840F0807030601B
:10309000FDF77AFE0446306810F0007F06D1FDF798
:1030A00073FE011B03200229F5D986E7002084E77F
:1030B00021F001003067306F20F004003067FDF729
:1030C00063FE054641F28837306F10F0020F7FF43F
:1030D000B4AEFDF759FE411B0320B942F4D96CE7A9
:1030E000F8B51E4615460F460446D0B1D4F8880000
:1030F00028B9002084F88400204600F0A1FB242099
:10310000C4F888002068016821F001010160A06A0C
:1031100010B1204600F0FAFF204601F0F3F8012834
:1031200002D1012001B0F0BD2068816841F48041E6
:103130008160816821F40041394381603104026873
:1031400041EA45516FF3194211430160016841F0B2
:10315000010101602046BDE8F44001F041B870472C
:103160007047704710B5044650B394F83D0028B935
:10317000002084F83C00204600F024F80220211DA5
:1031800084F83D00206800F01FFF012084F848000B
:1031900084F83E0084F83F0084F8400084F8410041
:1031A00084F8420084F8430084F8440084F8450021
:1031B00084F8460084F8470084F83D00002010BDE4
:1031C000012010BD7047000090F83D1001291CBF80
:1031D00001207047022180F83D100168C868B1F1F4
:1031E000804F40F00100C86017D0154881421CBFD5
:1031F0001448814211D0144881421CBF13488142B7
:103200000BD0134881421CBF1248814205D06B4845
:1032100081421CBF1048814209D18868104A02408F
:103220000020062A18BFB2F5803F03D170470B4833
:103230008142F2D0086840F0010008600020704729
:103240000004004000080040000C0040001800404E
:1032500000E0004000E40040004001400004014064
:103260000700010070470000F8B504460068C76811
:10327000066906EA070515F0020F14D06FF0020187
:10328000016101212177806910F0030F03D02046EE
:10329000FFF7E8FF05E0204600F086F8204600F042
:1032A00084F800202077680715D520686FF00401A6
:1032B000016102212177806910F4407F03D020460C
:1032C000FFF7D0FF05E0204600F06EF8204600F042
:1032D0006CF800202077280715D520686FF00801CA
:1032E000016104212177C06910F0030F03D020464B
:1032F000FFF7B8FF05E0204600F056F8204600F042
:1033000054F800202077E80615D520686FF01001EA
:10331000016108212177C06910F4407F03D0204665
:10332000FFF7A0FF05E0204600F03EF8204600F041
:103330003CF800202077E80706D020686FF00101F4
:103340000161204600F032F817F0800718BF16F42C
:10335000025005D02068124901612046FFF700FFA6
:1033600047B116F4807005D020680E4901612046EF
:10337000FFF7F5FE680606D520686FF04001016191
:10338000204600F01DF8A80658BFF8BD20686FF071
:10339000200101612046BDE8F840FFF7E2BE00BF12
:1033A0007FDFFFFFFFFEFFFF7047704700680349A4
:1033B000884208BFFDF7ECBC704700BF0000014029
:1033C000704790F88410012901D1022112E02421D4
:1033D000C0F8881002681368116821F0010123F019
:1033E00000531160002141661360202280F8841090
:1033F000C0F88820C8B2704770477047B0B504461F
:1034000090F88400012801D102201BE02420C4F898
:103410008800012084F8840020680568026822F092
:1034200001020260826822F06062114381602046DE
:1034300000F042FE206820210560002084F884000E
:10344000C4F88810C0B2B0BDB0B5044690F884008E
:10345000012801D102201BE02420C4F888000120AB
:1034600084F8840020680568026822F00102026086
:10347000826822F0604211438160204600F01CFE09
:10348000206820210560002084F88400C4F888109A
:10349000C0B2B0BD704770477047000070B50446B9
:1034A000006840F60F01C2690346D0F800E053F807
:1034B00008CF0A424AD0C5490EEA0105C44901EACB
:1034C0000C010D434CD0D5071FBF1EF4807501259C
:1034D0000562D4F890501CBF45F00105C4F8905027
:1034E00096070CF0010508D53DB102260662D4F816
:1034F000906046F00406C4F89060560708D53DB1C8
:1035000004250562D4F8905045F00205C4F89050A7
:1035100015070CD50EF0200529431FBF08210162B5
:10352000D4F8901041F0080118BFC4F890101105AC
:1035300069D51EF0806166D04FF4006125460162B6
:1035400055F8900F40F0200028605EE0910607D506
:103550000EF020010CF08053194301D0616FF0E0B0
:10356000E36E0EEA020111F0100F3DD0012B3BD1AA
:1035700010210162816811F0400F40F08780B4F89B
:103580005E10B4F85C20B4F85E30002B00F01081BF
:10359000511A0A0401D10BE1206850E8000F22689B
:1035A00020F4907042E80003002BF5D18A4822688D
:1035B00052E8022F2368024043E80226002EF6D18B
:1035C0002020C4F88C0000206067E066206850E886
:1035D000000F226820F0100042E80003002BF5D114
:1035E000022089B220679EE0D30240F1A1801CF442
:1035F000800300F09D804FF4801101622046BDE8F9
:103600007040FFF748BF04F190052868002800F0DB
:10361000CF8090060DD50EF020000CF080510843AD
:103620001CBF616F002904D020468847206800F144
:1036300008032868196800F0280001F040010843D9
:1036400000F08980204600F02FFE2068816811F08C
:10365000400F01D17AE0206850E8020F216820F085
:10366000400041E80202002AF5D1D4F88000002889
:103670006CD058490165FDF7B5F9002800F0988035
:10368000D4F88000016DBDE870400847D4F8803060
:1036900019684D68B4F85C20A9B2002900F0828056
:1036A000914280F07F80A4F85E50D969B1F5807FA7
:1036B00001D132E0206850E8000F216820F48070CA
:1036C00041E80002002AF5D1206850E8020F216885
:1036D00020F0010041E80202002AF5D1206850E8FC
:1036E000020F216820F0400041E80202002AF5D1D3
:1036F0002020C4F88C000020E066206850E8000F0D
:10370000216820F0100041E80002002AF5D1D4F829
:103710008000FCF7E1FFB4F85C2002202067B4F8D9
:103720005E00101A81B22046BDE87040FFF764BE0B
:10373000130617D50EF080030CF40006334311D0A6
:10374000A16FA9B32046BDE8704008472046BDE8F8
:103750007040FFF7A1BE2046FFF79EFE0020C4F890
:10376000900070BD49060AD4100222D51EF0804098
:103770001FD02046BDE87040FFF78CBE206850E89F
:10378000000F216820F0400041E80002002AF5D136
:103790000020A0672020C4F888002046BDE87040C3
:1037A00000F0E2B88A4204BFD869B0F5807F0AD041
:1037B00070BDD001FCD5BEF1FF3FF9DC2046BDE86D
:1037C0007040FFF71ABE02200CE700BF2001000482
:1037D000010000109D420008FEFFFFEF10B50446F7
:1037E000D0B1D4F8880028B9002084F8840020469D
:1037F00000F026F82420C4F888002068016821F031
:1038000001010160A06A10B1204600F07FFC204653
:1038100000F078FD012801D1012010BD2068416829
:1038200021F490414160816821F02A0181600168A2
:1038300041F0010101602046BDE8104000F0D0BC1D
:103840002DE9F041B6B0044631A81421FCF776FE0C
:1038500002A8B821FCF772FE2068AE49884232D037
:10386000904988427CD10024022502A80394029545
:103870001F94FEF739FB08B1FCF71DFF6F48816804
:1038800041F400318160816801F4003101910199B6
:10389000016841F00801016031A9006800F00800EA
:1038A000019001983295602031900720CDE9334492
:1038B00035906348FDF794F9262005210022FDF795
:1038C00045FB26204AE000264FF0020802A8039696
:1038D000CDF808801F96FEF707FB08B1FCF7EBFE5A
:1038E0005648574C31AD0727816841F480218160EB
:1038F000816801F4802101910199016841F0020180
:103900000160016801F0020101910199016841F033
:10391000080101602946006800F008000190019844
:10392000CDF8C8804FF480403190A4F50060CDE917
:1039300033663597FDF754F94FF44070CDF8C880E1
:10394000294631902046CDE933663597FDF748F991
:10395000272005210022FDF7F9FA2720FDF7E8FAD4
:1039600036B0BDE8F08100BF7047FEE7B0B54FF05C
:10397000000C4FF0300E372300240FE003EB1075DE
:10398000B0F1204FA2F1010238BF4EEA10750001DC
:103990000D5544F00105023401F805C0002AEDD1AF
:1039A000B0BD000080B50448044A002102F088FC44
:1039B0000349086080BD00BF253E0008507B000819
:1039C0000817002470B586B01C4800251C4C002246
:1039D00010260595016841F080010160016801F041
:1039E000800100910099016841F0020101600168C5
:1039F00001F0020100910099016841F008010160A5
:103A0000016801F0080100910099016841F001018D
:103A100001601021006800F001000090009820462D
:103A2000FDF7ACF9012001A9CDE901602046CDE9FF
:103A30000355FDF7D5F806B070BD00BFE04402584D
:103A4000000C025810B5164C3148164900220C23C0
:103A5000C4E9001004F118001421C4E90222C4E9E9
:103A60000423FCF76BFD2046FFF7B8FE08B1FCF716
:103A700022FE0B480021FFF7E7FC08B1FCF71BFE14
:103A800007480021FFF7BAFC08B1FCF714FE044810
:103A9000FFF797FC18B1BDE81040FCF70CBE10BD55
:103AA000181F00240044004010B5184C184819494C
:103AB00000220C23C4E9001004F118001421C4E909
:103AC0000222C4E90423FCF739FD2046002100222C
:103AD0000023FFF705FB08B1FCF7EDFD0B480021C3
:103AE000FFF7B2FC08B1FCF7E6FD08480021FFF73C
:103AF00085FC08B1FCF7DFFD0448FFF762FC18B154
:103B0000BDE81040FCF7D7BD10BD00BFAC1F0024BE
:103B100000093D000048004080B5104810490122CE
:103B200001F0A8F908B1FCF7C6FD0C480D4901F0F9
:103B3000B4FB08B1FCF7BFFD08480B4900F0D6FF05
:103B400008B1FCF7B8FD054801F0CFFB08B1FCF760
:103B5000B2FDBDE88040FEF79DB800BF0C17002401
:103B60001400002434000024D0000024FEE7FEE707
:103B70000148FDF795BB00BFE819002400000000D4
:103B8000EFF30980BFF36F8F154B1A681EF0100F0B
:103B900008BF20ED108A20E9F04F10602DE90900E0
:103BA0004FF0500080F31188BFF34F8FBFF36F8F3A
:103BB00003F02CFA4FF0000080F31188BDE80900F3
:103BC00019680868B0E8F04F1EF0100F08BFB0EC9D
:103BD000108A80F30988BFF36F8F704700BF00BF62
:103BE000E0200024F8B5F04F05460C46B86A00F016
:103BF0000300032801D1012075E0386820F08060BF
:103C00003860FDF7C1F80646386810F0006F05D03F
:103C1000FDF7BAF8801B0228F6D961E0B86A296876
:103C20002B1D4FF4FE06002C20F47C3040EA0130BE
:103C3000B8620FCB01F17F0100F2FF1002F17F02A9
:103C40004FEA41216FF35F2006EA024289B240EA5F
:103C5000010003F17F0140EA02004FF0FE4202EA58
:103C6000016140EA0100B863F86A696920F0C000A8
:103C700040EA0100F862F86AA96920F0200040EAF1
:103C800001004FF6F871F862F86A20F01000F8624F
:103C9000F86B20EA0100E96940EAC100F863F86ABC
:103CA00040F01000F86207D0F86A012C14BF40F40D
:103CB000001040F4801002E0F86A40F40020F8623E
:103CC000386840F080603860FDF75EF80446386878
:103CD00010F0006F06D1FDF757F8001B0328F6D34C
:103CE000032000E00020C0B201B0F0BDF8B5AE4F37
:103CF00005460C46B86A00F00300032801D10120F4
:103D000075E0386820F080503860FDF73DF80646D1
:103D1000386810F0005F05D0FDF736F8801B0228E8
:103D2000F6D961E0B86A29682B1D4FF4FE06002C15
:103D300020F07C7040EA0150B8620FCB01F17F01A6
:103D400000F2FF1002F17F024FEA41216FF35F2082
:103D500006EA024289B240EA010003F17F0140EA2B
:103D600002004FF0FE4202EA016140EA01003864BD
:103D7000F86A696920F4406040EA0100F862F86A74
:103D8000A96920F4007040EA01004FF6F871F8626A
:103D9000F86A20F48070F862786C20EA0100E96922
:103DA00040EAC1007864F86A40F48070F86207D095
:103DB000F86A012C14BF40F0807040F4000002E06B
:103DC000F86A40F48000F862386840F0805038604B
:103DD000FCF7DAFF0446386810F0005F06D1FCF704
:103DE000D3FF001B0328F6D3032000E00020C0B25D
:103DF00001B0F0BD00000000000000000000000065
:103E0000074B19680868B0E8F04F80F30988BFF3E2
:103E10006F8F4FF0000080F31188704700BF00BF24
:103E2000E020002480B5FFF777FE012002F00EFAB3
:103E3000FBE7000080B50548006803F09FFC0128FF
:103E40001CBFBDE8804003F08BB980BD10E000E0EE
:103E500010B59CB009A84C21FCF770FB01A82021EB
:103E6000FCF76CFB0220FDF7F1FE002000902248D9
:103E7000016821F440410160016801F44041009172
:103E80000099016811F4005FFBD04FF480300221EB
:103E9000282200240A902120099001200F90CDE9CA
:103EA00012111491CDE915200C20CDE917111990AC
:103EB00009A8CDE91A44FEF79FFE18B1EFF3108070
:103EC00072B6FEE703204FF4806102903F2001901C
:103ED0000820039404904020CDE90500CDE90710A7
:103EE00001A80321FEF796FC18B1EFF3108072B61B
:103EF000FEE71CB010BD00BF1848025828480168F2
:103F000041F4700101602748016801F00F010629A2
:103F10009FBF0168072262F30301016010B52249C7
:103F2000224C0A6842F001020A6000220A610B6812
:103F300023400B60036813F0080F1FBF03680724BA
:103F400064F3030303608A61CA610A62184B8B62DF
:103F5000184BCB62184B0B634A638B63CA630B64C9
:103F60004A640B6823F480230B600A66D1F8D420DE
:103F700012F4805FBDE8104018BF7047D1F8D4201C
:103F800043F2D20342F48052C1F8D4204FF40052DD
:103F90008350D1F8D40020F48050C1F8D400704789
:103FA00088ED00E000200052004402587FEDF6EA60
:103FB000000202020000FF01800201010148FFF738
:103FC00053B900BFCC1E0024D0F800C0B0F1804F20
:103FD0000BD02F4B98421CBF2E4B984205D02E4B36
:103FE00098421CBF2D4B984249D14B682CF070026F
:103FF00043EA020CB0F1804F1CBF254B984217D00A
:10400000244B98421CBF244B984211D0254B984218
:104010001CBF254B98420BD0214B98421CBF1F4B15
:10402000984205D0214B98421CBF214B98422AD17F
:10403000CB682CF4407243EA020C8B684A69C36275
:104040000B6883622CF080031A43154B98421CBF07
:10405000124B984205D0154B98421CBF144B984206
:1040600009D109690163016841F00401016001217E
:104070004161026070470F4B9842F2D0F3E7084B62
:104080009842B2D0B6E70B4B9842D1D0D5E700BFEB
:104090000004004000080040000C00400004014003
:1040A0000000014000E0004000E40040004001400A
:1040B0000048014000440140416ED9B180B502681A
:1040C000DFF840C0DFF840E09168C1F342619268D8
:1040D0001CF801301EF80110520F0901B1FBF3F179
:1040E0001CF802301EF802201201B2FBF3F2BDE808
:1040F000804001E001220121A0F86810A0F86A20A8
:10410000704700BF467B00083E7B0008816A11F0C3
:10411000080F08D002685368D0F838C023F4004371
:1041200043EA0C035360CA0708D002685368D0F80A
:104130002CC023F4003343EA0C0353608A0708D5EC
:1041400002685368D0F830C023F4803343EA0C038C
:1041500053604A0708D502685368D0F834C023F486
:10416000802343EA0C035360CA0608D502689368AB
:10417000D0F83CC023F4805343EA0C0393608A06D2
:1041800008D502689368D0F840C023F4005343EA8E
:104190000C03936080B54A0615D5D0F800E0DEF830
:1041A00004C0436C2CF48012B3F5801F42EA030272
:1041B000CEF8042007D1DEF80420836C22F4C0027C
:1041C0001A43CEF804200906BDE8804058BF704766
:1041D00001684A68C06C22F40022104348607047AE
:1041E000BCB504460020C4F89000FCF7CDFD0546A0
:1041F0002068016811F0080F18D027484FF400110B
:1042000000222B460090204600F084FA68B1206816
:1042100050E8000F216820F0800041E80002002AE9
:10422000F5D12020C4F8880025E02068006810F04F
:10423000040F22D018484FF4800100222B46009032
:10424000204600F067FAC0B1206850E8000F2168EE
:1042500020F4907041E80002002AF5D1206850E86F
:10426000020F216820F0010041E80202002AF5D186
:104270002020C4F88C00032007E02020C4F8880028
:10428000C4F88C000020E06620670021C0B284F8EA
:10429000841002B0B0BD00BFFFFFFF01806B0021A2
:1042A000A0F85E10FFF7F8B8016851E8001F026837
:1042B00021F4907142E80013002BF5D110B5104C99
:1042C000026852E8022F0368224043E802210029D5
:1042D000F6D1C16E0129BDE8104009D1016851E84D
:1042E000001F026821F0100142E80013002BF5D1F5
:1042F0002021C0F88C1000214167C166704700BFC3
:10430000FEFFFFEFFEB5044601688068994ED4E9D0
:104310000423E56910430A681843974B28431A4061
:10432000104308604868E26820F440501043934A04
:104330004860A069A2F50E33944699421CBF226AD8
:1043400010438A68324010438860C86A626A20F06D
:104350000F001043C8628A48814235D089488142A3
:104360003FD08948814249D08848814200F053803B
:104370008748814200F05C808648814200F0658079
:104380008548814200F06D808448814200F075804C
:104390008348814200F07D808248814200F0858020
:1043A0008148814240F08F8080480068C0F3C2009D
:1043B000052800F288800126DFE810F08E008300D7
:1043C000870089008B008D007848006800F00700A6
:1043D000052800F278800026DFE800F07E73777908
:1043E0007B7D7248006800F00700052800F26B80B2
:1043F0000026DFE800F071666A6C6E706B4800683A
:1044000000F00700052800F25E800026DFE800F0DB
:1044100064595D5F61636548006800F00700052826
:1044200000F251800026DFE800F0574C50525456FD
:104430005E48006800F00700052800F2448000266E
:10444000DFE800F04A3F43454749AD48006800F0C7
:104450000700052837D80026DFE800F03E3337395B
:104460003B3DA748406800F0070005282BD80226EE
:10447000DFE800F032272B2D2F31A1480068C0F370
:10448000C20005281FD80126DFE800F0261B1F21E7
:1044900023259B480068C0F3C200052813D80126D5
:1044A000DFE800F01A0F1315171995480068C0F3DC
:1044B000C200052807D80126DFE800F00E0307092F
:1044C0000B0D042608E0802606E0082604E01026EE
:1044D00002E0202600E040268A48994213D00121BC
:1044E000B5F5004F1FD1082E29D8DFE816F00900D6
:1044F0009D0000010001A000000100010001A400D6
:10450000FEF7DAFA9BE0402E31D0042E50D0082E70
:1045100052D0102E59D0202E62D0022E40F0E680CC
:10452000FDF7C0FB4CE0082E15D8DFE806F0058C3F
:10453000E0E08FE0E0E09300FEF7BEFA8EE0102EA0
:1045400000F09080202E00F09880402E40F0CF8028
:104550004FF4004091E0102E00F0A880202E00F0D3
:10456000B080402E40F0C3804FF40040A9E04FF4EB
:10457000004035E0FFF4FF11F369FFCF004402581B
:104580000044004000480040004C00400050004003
:1045900000780040007C0040000C005800140140EE
:1045A00000180140001C0140001001405444025812
:1045B0006846FDF789FB02E06846FDF70DFC0198AF
:1045C000002800F09180626A0AE0DCF800104E4892
:1045D00011F0200F1EBFDCF80010C1F3C101C8406C
:1045E0004A49656831F8122005EB45070121B0FB07
:1045F000F2F3BB427BD32F03BB4278D800210023C8
:10460000FBF7D8FE09022A46002341EA10610002A6
:1046100010EB550041F10001FBF7CCFE3C4AA0F540
:104620004071914240D961E0FEF754FA07E06846D4
:10463000FDF74AFB02E06846FDF7CEFB0198002833
:1046400052D0626A19E0FEF745FA07E06846FDF7C6
:104650003BFB02E06846FDF7BFFB0198002843D012
:10466000626A2EE0DCF80010274811F0200F1EBF10
:10467000DCF80010C1F3C101C840244931F8121020
:10468000B0FBF1F061684A0802EB40004FF6EF72B0
:10469000B0FBF1F0A0F11001914227D84FF6F07174
:1046A0000140C0F34200084321681CE0DCF8001020
:1046B000154811F0200F1EBFDCF80010C1F3C10136
:1046C000C840124931F812104FF6EF72B0FBF1F00A
:1046D000616800EB5100B0FBF1F0A0F110019142D4
:1046E00004D8216880B2C860002100E001214FF0A9
:1046F00001120020A266C4E91D00084603B0F0BD07
:104700005444025800093D000090D003267B000865
:10471000FFFC0F002DE9F843DDF820900446006807
:10472000984616460F4609F10105C1693940C91B73
:10473000B1FA81F14909B1422AD1002DF5D0FCF737
:1047400023FB0321B9F1000F23D0A0EB080048455B
:104750001FD82068016811F0040FE6D0402F18BF61
:10476000802FE2D0C16911F0080F16D1C16911F490
:10477000006FDAD04FF4006101622046FFF794FD2C
:104780000020032184F884002020C4F8900000E079
:104790000021C8B201B0BDE8F083082505622046BB
:1047A000FFF782FD0020012184F88400C4F89050B6
:1047B000EFE700000148FEF771BE00BF181F00249C
:1047C0000148FEF76BBE00BFAC1F002470B58C46DD
:1047D000D0F8D41200EB8103D3F8C01219B30CF057
:1047E0000F0E0EEB8E0200EB820252F8184F5CB1F6
:1047F000D0F8C8620EEBCE0506EB8506F669B4FB71
:10480000F6F505FB164686B10024C1F81442D3F82C
:10481000C402036983B1D1F8080201F5047162464C
:104820009847002408E0032406E0002461460023A2
:104830001460002200F01DFDE0B270BDB0B504466A
:10484000D0F8D40204EB8000D0F8C05295B12046D5
:1048500000F0DAFBC5F80C0205F50371D4F8D402B8
:1048600004EB8000D0F8C402C268D5F80402904777
:10487000002000E00320C0B2B0BD000070B5154EAE
:1048800081210446B0470025204601212587B047F5
:1048900020468221A4F87851B047E564D4F8D402C8
:1048A00004EB8000D0F8C01289B1D0F8C40240688F
:1048B0008047D4F8D40204F5307656F8200000F092
:1048C0006DFFD4F8D40246F82050C4F8BC52002042
:1048D00070BD00BFAF4E000810B5D0F8D41200EB89
:1048E0008100D0F8C04284B1D0F8C41259B194F814
:1048F0000002FF2807D08B6894F8012221469847D0
:10490000FF2084F80002002000E00320C0B210BDA8
:104910000A21018000487047B00000242DE9F041D1
:104920002F4F304C804682213846A04706463846F5
:104930000121A047054638468121A0470EB110212C
:10494000B1710DB14021A98008B14021818043207F
:10495000A8F800002248BDE8F08100BF2DE9F04131
:104960001F4F204C804682213846A04706463846D5
:104970000121A047054638468121A0470EB11021EC
:10498000B17115B14FF40071A98010B14FF40071ED
:1049900081804320A8F800001148BDE8F08100BFE5
:1049A0002DE9F0410E4F0F4C804682213846A0473A
:1049B000064638460121A047054638468121A047D2
:1049C0000EB11021B1710DB14021A98008B1402173
:1049D00081804320A8F800000148BDE8F08100BFB5
:1049E0006C000024BB4C000870B504464FF40770FF
:1049F00000F0D6FE0546C8B128464FF40771FBF714
:104A00009DFDD4F8D40204EB8000C0F8C052C4F875
:104A1000BC52207C90B1204681210222402300F02C
:104A20006EFB012001210222402313E0D4F8D402BE
:104A3000002104EB8000C0F8C0123BE02046812139
:104A400002224FF4007300F05AFB012001210222E0
:104A50004FF400732087204600F051FB1020012600
:104A6000822103220823A4F84E002046A4F878618E
:104A700000F045FBA4F84C600026C5F80462D4F8A9
:104A8000D40204EB8000D0F8C40200688047C5F867
:104A90001462C5F81862D5F804225AB1207C0121AD
:104AA0000028204614BF40234FF4007300F033FB6E
:104AB000002000E00220C0B270BD80B5D0F8D41252
:104AC00000EB8101D1F8C01269B1D1F80422017C58
:104AD00000294FF0010114BF40234FF4007300F090
:104AE0001AFB002000E00320C0B280BD39B1D0F82D
:104AF000D42200EB8200C0F8C412002000E00320A2
:104B0000C0B27047D0F8D42200EB8200D0F8C002C7
:104B100000281ABFC0F8041200200320C0B270475A
:104B2000D0F8D43200EB8300D0F8C00228B1C0F82E
:104B30001022C0F80812002000E00320C0B2704725
:104B40007CB50446D0F8D4020D46002104EB800069
:104B5000D0F8C0628DF80710ADF80410002E50D0C8
:104B6000297811F0600212D0202A46D1EA88F2B1E9
:104B7000090625D4402A314628BF4022687886F8A5
:104B8000012286F80002204600F067F82FE06878DE
:104B90000B282ED001282AD00A281ED068BB94F8F2
:104BA0009C02032829D101A9204602221DE0D0F849
:104BB000C40229460022002483686878984721E0CF
:104BC000D0F8C4023146836868789847EA8820465E
:104BD0003146072A28BF072207E094F89C020328E1
:104BE0000BD10DF107012046012200F04EF8002400
:104BF00008E094F89C020328F9D02046294600F0EA
:104C000021F80324E0B202B070BD80B5D0F8B8221C
:104C100052689047002818BF032080BD00207047CD
:104C20000020704780B513460A46002100F073FA51
:104C3000002080BD80B513460A46002100F019FB14
:104C4000002080BD10B58021044600F0F3FA204614
:104C50000021BDE8104000F0EDBA80B513460A46C9
:104C60000321C0F894120021C0E9563300F053FA32
:104C7000002080BD80B5052100220023C0F89412D9
:104C8000002100F048FA002080BD80B513460A4696
:104C90000221C0F894120021C0E9063300F0E9FABD
:104CA000002080BD80B5042100220023C0F89412AA
:104CB000002100F0DEFA002080BD0278B0F802C0CA
:104CC00094450CD993B2634509D2037818441A4429
:104CD0004378052B04BF83788B42F3D170470020C3
:104CE000704780B5E8B34FF0000C864603E00EF144
:104CF000010E0CF1010C9EF80030002BF7D10123BE
:104D000053FA8CF35B00B3F5007F02D94FF40073C4
:104D100010E04FF0000C864603E00EF1010E0CF19E
:104D2000010C9EF80030002BF7D15FFA8CFC0223B7
:104D300003EB4C03138003224FF0020E4FF0000CE4
:104D40004A700B700AE05FFA8EF201308B544EF01D
:104D500001020EF1020ED2B201F802C00378002B5C
:104D6000F1D180BD032884BF032070470249C000F1
:104D700021FA00F0C0B270470003010310B5044CE3
:104D80000A4604A02146FFF7ACFF204610BD00BF35
:104D9000E802002443444320436F6E6669670000C5
:104DA0001220088000487047BC00002410B5044C55
:104DB0000A4604A02146FFF794FF204610BD00BF1D
:104DC000E802002443444320496E746572666163BF
:104DD000650000000420088000487047E4000024BB
:104DE00010B5044C0A4604A02146FFF77AFF20467E
:104DF00010BD00BFE802002453544D6963726F6513
:104E00006C656374726F6E696373000010B5044C57
:104E10000A4604A02146FFF764FF204610BD00BFEC
:104E2000E802002453544D33322056697274756180
:104E30006C20436F6D506F72740000001A20088060
:104E40000A4908688A6880180ED0B0B5084D4C68C9
:104E50000822A91CFEF78AFD05F112012046042252
:104E6000FEF784FDBDE8B0400148704700E8F11F3F
:104E7000E800002480B100230029C0F8C432C0F843
:104E8000B832C0F8D03201D0C0F8B412012102709B
:104E900080F89C1200F0BCB80320704780B5D0F8B1
:104EA000C802FCF71CF9BDE88040FFF75BBF80B586
:104EB000D0F8C802FCF7E9F8BDE88040FFF752BF20
:104EC000B0B5044689B194F89C0203284ED1D4F8B9
:104ED000B8024269002A49D00020C4F8D402204612
:104EE0009047002808BF0020B0BDD4F894020228E3
:104EF00036D1D4E9070188420DD9431A114620461C
:104F00001A46E361FFF796FE2046002100220023A7
:104F100000F001F924E00FD1A16981420CD3D4F84B
:104F20009802814208D22046002100220025FFF786
:104F300081FEC4F89852E7E794F89C02032808D150
:104F4000D4F8B802C16821B10020C4F8D4022046C8
:104F500088472046802100F06DF92046FFF78AFE41
:104F600094F8A00210B1002084F8A0020020B0BD87
:104F700010B5044681B194F89C02032830D1D4F8CE
:104F8000B802826962B30020C4F8D4022046904778
:104F9000002808BF002010BDD4F8940203281FD1B8
:104FA000D4E9570398420BD9C01A11469842C4F865
:104FB0005C0138BF034620461A46FFF733FE0FE078
:104FC00094F89C02032808D1D4F8B802016921B1F1
:104FD0000020C4F8D402204688472046FFF762FE2E
:104FE000002010BD00207047012180F89C12D0F8ED
:104FF000B8223AB180B5017952689047002818BFAD
:10500000032080BD00207047D0F8C802FCF796B896
:10501000017801292BD110B51649C1F8E004C0F878
:10502000C81209200871144808604FF40070C88045
:105030000220C1F809000020C88108740846FCF766
:10504000FEFC08B1FBF737FB0A4C4FF40071204619
:10505000FBF7C3FF204600218022FBF7C2FF20465A
:1050600001214FF4BA72FBF7BCFFBDE810400020ED
:10507000704700BFE819002400000440D0F8C802BF
:1050800001F07F0211F0800F02EBC20200EB820000
:1050900000F1160208BF00F2562210787047D0F8CF
:1050A000D42200EB8202D2F8B8226AB190F89C3286
:1050B000032B07D1126A2AB180B590470020BDE8C2
:1050C000804002E0002000E00320C0B27047D0F82A
:1050D000D42200EB8202D2F8B8226AB190F89C3256
:1050E000032B07D1526A2AB180B590470020BDE852
:1050F000804002E0002000E00320C0B2704780B58D
:10510000D0F8C80294461A466346FCF720F8BDE87A
:105110008040FFF727BE80B5D0F8C802FCF74FF8F3
:10512000BDE88040FFF71EBEF8B501260025044605
:1051300080F89C624560C0F8A45280F8A052C0F884
:105140009452D0F8B80250B142683AB120460021DA
:1051500090470546002818BF032500E0002520469B
:105160000021002240234027FFF7C9FF204680216D
:1051700000224023A4F86461C4F86071FFF7BFFF08
:10518000A6842762284601B0F0BD90F89C1204293D
:1051900004BF90F89D1280F89C120020704790F890
:1051A0009C12032908D1D0F8B81229B1C96919B1E4
:1051B00080B58847BDE8804000207047017400201A
:1051C000704780B5D0F8C802FCF7EBFCBDE8804022
:1051D000FFF7C8BDB0B500F2AA250446284600F086
:1051E00051F80120C4F89402B4F8B002C4F898024F
:1051F00094F8AA0200F01F01022908D001290CD05E
:1052000089B920462946BDE8B04000F071B8204673
:105210002946BDE8B04000F0D9B920462946BDE88E
:10522000B04000F086BA00F080012046BDE8B040F2
:10523000AFF3008080B5D0F8C802FBF7DDFFBDE812
:105240008040FFF78FBD80B5D0F8C802FCF7C4FCE2
:10525000BDE88040FFF786BD90F89C1204291CBF72
:1052600090F89C1280F89D12042180F89C12002076
:10527000704780B5D0F8C802FBF7F5FFBDE8804065
:10528000FFF770BD0A7802704A7842704A884280FF
:105290008A888280C988C18070471CB50446002076
:1052A0000029ADF8060015D0C4F8B81204F52E7127
:1052B000D4F8D40251F82000C16A21B10DF10600E2
:1052C0008847C4F8D002D4F8D8020130C4F8D80214
:1052D000002000E00320C0B202B010BDD0F8B82218
:1052E0000AB11268104700207047FFF7ACBF0000FA
:1052F000BCB5044608780D4610F0600011D0402877
:1053000018BF202840F00E81D4F8D402294604EBBF
:105310008000D0F8B8028268204602B0BDE8B040F4
:1053200010476878092800F2FD80DFE810F00A00D5
:105330002000FB003100FB005A007B00FB003C001A
:105340004F0094F89C020138022800F2EB80E888B4
:10535000022840F0E780D4F8A402032102220028AA
:10536000204608BF0121E16004F10C01D7E094F868
:105370009C020138022800F2D580688800250128A7
:1053800040F0D480C4F8A4522046FFF78BFCCDE057
:105390006888022800F07780012840F0C38001204F
:1053A000C4F8A402DFE0E888012840F0BB8094F84C
:1053B0009C02411E022980F06A8000252146204679
:1053C000012241F8085FFFF760FCAFE068887E4D7E
:1053D00010F0FE0F28703FD02046FFF733FC032566
:1053E000A4E0A888002840F09D80E888002840F0CC
:1053F000998068887F2800F2958094F89C12032990
:1054000000F0908000F07F052046E9B284F89E52BB
:10541000FFF7D7FE2046FFF745FC002D14BF022002
:105420000120BAE000204FF0FF31ADF80600688897
:1054300001EB10210E2900F27580DFE801F008442D
:105440002E7373515A737373737373733A00D4F872
:10545000B412207C0A6831E0C1B294F89C0203289F
:1054600067D0022840F08380002900F07C8020462D
:105470006160FFF733FF0546002800F08A80204670
:10548000FFF7E0FB6BE0687984F8A0026BE003288B
:1054900048D1211D2046012241E0C0B2052841D853
:1054A000DFE800F0037E82868A8ED4F8B402426878
:1054B00002E0D4F8B402C269A2B3207C0DF1060167
:1054C0009047014620E0217CD4F8B80200290CBFA7
:1054D000816AC16A0DF1060088470146022012E088
:1054E000207CF8B9D4F8B802416B0DF1060088476A
:1054F000E7E7207CB0B9D4F8B802016B0DF10600E3
:105500008847014607204870EA8862B3BDF8060064
:1055100040B1904238BF02462046ADF80620FFF762
:10552000B4FB02E02046FFF78DFB0025284602B0C1
:10553000B0BD21B36068884215D0C1B22046FFF7E4
:1055400064FB297820466160FFF7C8FE054650B12C
:105550002046FFF777FB21792046FFF756FB022014
:1055600084F89C02E2E72046FFF79CFBDDE720463B
:10557000FFF768FB29782046FFF747FB2FE702205B
:1055800061600021002584F89C022046FFF73DFB66
:10559000FAE62046FFF786FB032084F89C02C4E766
:1055A000D4F8B402826887E7D4F8B402C26883E70B
:1055B000D4F8B40202697FE7D4F8B40242697BE709
:1055C000D4F8B402826977E7E402002470B5044697
:1055D00008780D790E4610F0600017D0402818BFEB
:1055E00020284AD120462946FFF718FB002847D13A
:1055F000C4F8D40204EB8000D0F8B8028268002A14
:105600003ED020463146BDE8704010477078B8B1B2
:10561000012828D0032830D194F89C02032826D1F1
:10562000708848B945F08000802805D0F08818B906
:1056300020462946FFF7FEFD2046FFF733FB1FE01B
:1056400094F89C0203281DD0022816D1002D56D0B4
:10565000802D12D105F07F0000EB800004EB80006C
:1056600000F1140153E094F89C02032820D0022892
:1056700003D145F08000802827D12046FFF7E2FAC9
:10568000002070BD05F00F0015F0800F00EB8000CA
:1056900004EB800022D1B0F864010028EDD005F0C1
:1056A0007F0000EB800004EB800000F5AA7620E08C
:1056B00070880028E4D1680603D020462946FFF709
:1056C000EDFB2046FFF7EEFA8CE720462946FFF770
:1056D000B1FD20468021FFF7ADFDD1E7808C002889
:1056E000CBD005F07F0000EB800004EB800000F1E0
:1056F000140645F0800080280DD1002012E005F04E
:105700007F0000EB800004EB800000F5AA71002010
:105710000860204609E020462946FFF7AFFC002834
:10572000EBD001203060204631460222FFF7ADFA6F
:10573000A6E7B0B5044608780D4610F0600018BF23
:1057400040280FD194F89C02013802280CD8A88870
:1057500010F0FE0F08D1C1B22046FFF761FA40B148
:105760000320B0BD2028EDD02046FFF76BFA0020C3
:10577000B0BD04EB8001D1F8B8128A68002AEFD0DE
:10578000C4F8D4022046294690470028F0D1E98881
:105790000029EDD12046FFF785FAE8E770470000C1
:1057A00000487047E804002480B591F800C091F8E3
:1057B00001E001220CF00F03BEF1010F02FA03F326
:1057C0001BD1D0F81C281A434FEA4C13C0F81C28F0
:1057D00000F51060C25812F4004F28D191F804E08F
:1057E00089681A586FF3DF2141EA8C511143114A3D
:1057F00041EA8E411143195019E0D0F81C2842EAC1
:105800000342C0F81C284FEA4C1200F53060835860
:1058100013F4004F0BD191F804C0896813586FF34B
:10582000DF211943034B41EA8C41194311500020F9
:1058300080BD00BF00800010D0F8001940F2FF7258
:105840009143C0F80019D0F8041841F48071C0F8F1
:10585000041800207047000070B5044602F47F4031
:105860001E460D46B0F5807F18D1A16B1E4A0498E4
:1058700021F48031C0B2A1630128E16801EA02018C
:10588000E160E16821F44011E16002BFE06840F4AA
:105890008010E060204600F02BF80FE0E06840F058
:1058A0004000E060204600F023F8A16B16F47F4F23
:1058B00014BF21F4803141F48031A16305F47F01EC
:1058C000B1F5803F18BF70BDE16D084A89B2E1654E
:1058D000E16D1143E165A16841F00601A160A16895
:1058E00041F02001A16070BDBFFFBDFF0000EE03CD
:1058F00081B0002100910099013100910099B1F12E
:10590000706F16D80169B1F1FF3FF4DC00210091FE
:10591000016941F001010161009901310091009993
:10592000B1F1706F05D8016911F0010FF4D10020B9
:1059300000E00320C0B201B07047000010B54A7803
:105940000B78204C00EB4311012A15D101F51062B0
:10595000D1F80019B1F1FF3F07DC116841F0006197
:105960001160116841F08041116003F00F010123C3
:1059700003FA01F18BB215E001F53062D1F8001B9A
:10598000B1F1FF3F07DC116841F00061116011685F
:1059900041F08041116003F00F014FF4803304F1B6
:1059A00070748B40D0F83C189943C0F83C18D0F87C
:1059B0001C189943C0F81C18106820401060002083
:1059C00010BD00BF007833ECD0F8001E21F00301B9
:1059D000C0F8001ED0F8041821F00201C0F8041825
:1059E00000207047D0F8001E21F00301C0F8001E0F
:1059F000D0F8041841F00201C0F8041800207047E4
:105A00002DE9F84F8A468046180C4121002302E018
:105A100048F8213001315029FAD15FFA80F9B9F103
:105A2000000F04D008F138014FF4001013E0D8F84B
:105A30000408414640F00200C8F80408D8F83800CD
:105A400020F40010C8F83800D8F8000040F04000FA
:105A5000C8F8000080200B681843086002F47F41FA
:105A60000020B1F5807FC8F8000E009209D1D8F867
:105A7000001808F5006BB0EB1A6F0BD1CBF80010D3
:105A80000CE0D8F8000808F5006B40F00300C8F8F7
:105A9000000803E041F00100CBF80000404610216F
:105AA00000F03FFA0746404600F018FA5FFA8AF124
:105AB0000022384308F510634FF67F37002649422D
:105AC000CBF81020CBF81420CBF81C200EE0002ED1
:105AD0004FF09045A6F1010608BF4FF000651C6825
