:020000040800F2
:10000000000400206D030008D72900087F2800089D
:10001000D52900086B0500087134000800000000B5
:10002000000000000000000000000000ED2B0008B0
:100030006D05000800000000D9290008EF2B00081A
:100040008B0300088B0300088B0300088B03000858
:100050008B0300088B0300088B0300088B03000848
:100060008B0300088B0300088B0300088B03000838
:100070008B0300088B0300088B0300088B03000828
:100080008B0300088B0300088B0300088B03000818
:100090008B0300088B0300088B0300088B03000808
:1000A0008B0300088B0300088B0300088B030008F8
:1000B0008B0300088B0300088B0300088B030008E8
:1000C0008B0300088B0300088B0300088B030008D8
:1000D0008B0300088B0300085934000865340008BE
:1000E0008B0300088B030008000000008B0300084E
:1000F0008B0300088B0300088B0300088B030008A8
:100100008B0300088B0300088B0300088B03000897
:100110008B0300088B0300088B0300088B03000887
:100120008B0300088B0300088B0300088B03000877
:100130008B0300088B0300088B0300088B03000867
:1001400000000000000000000000000000000000AF
:100150008B0300088B0300088B0300088B03000847
:100160008B0300088B0300088B0300088B03000837
:100170008B0300088B0300088B03000800000000BD
:100180008B0300088B0300088B0300088B03000817
:100190008B0300088B0300088B0300088B03000807
:1001A0008B0300088B0300088B030008000000008D
:1001B0008B0300088B0300088B0300088B030008E7
:1001C0008B0300088B030008000000000000000003
:1001D00000000000000000008B0300080000000089
:1001E000000000000000000000000000000000000F
:1001F00000000000000000008B0300088B030008D3
:100200008B0300088B030008000000008B0300082C
:100210008B0300088B0300088B0300088B03000886
:100220008B030008000000008B03000800000000A2
:100230008B0300088B030008000000008B030008FC
:100240008B0300088B0300088B0300088B03000856
:100250008B0300088B0300088B0300088B03000846
:100260008B0300088B0300088B0300088B03000836
:100270008B0300088B0300088B03000800000000BC
:100280008B0300088B0300088B0300088B03000816
:10029000000000008B0300088B0300080000000032
:1002A000000000008B0300088B0300088B0300088C
:1002B0008B0300088B0300088B0300088B030008E6
:1002C0008B0300088B0300088B03000800F002F882
:1002D00000F03CF80AA090E8000C82448344AAF1A4
:1002E0000107DA4501D100F031F8AFF2090EBAE8A2
:1002F0000F0013F0010F18BFFB1A43F0010318475A
:100300002832000058320000103A24BF78C878C163
:10031000FAD8520724BF30C830C144BF04680C600B
:10032000704700000023002400250026103A28BF53
:1003300078C1FBD8520728BF30C148BF0B60704757
:100340001FB503F0C7F81FBD10B510BD00F0D8F8F9
:100350001146FFF7F5FF03F09FF800F0F6F803B43D
:10036000FFF7F2FF03BC00F0F9F800000A488047ED
:100370000A4880470A480047FEE7FEE7FEE7FEE737
:10038000FEE7FEE7FEE7FEE7FEE7FEE70548064973
:10039000064A074B70470000790500089D2C0008AD
:1003A000CD020008A001002400040020A0030024C6
:1003B0000000002053EA020C00F069802DE9F04BA8
:1003C0004FF00006002B1FBFB3FA83F503FA05F4C4
:1003D00024FA05F65E4012BF1643B2FA82F502FA1D
:1003E00005F4C5F120051EBF22FA05FC44EA0C0401
:1003F000203556EA044C4FEA144418BF641C4FF0F1
:1004000000084FF00009904271EB030C39D300292A
:1004100019BFB1FA81F701FA07F6B0FA80F700FACE
:1004200007F6C7F120071EBF20FA07FC46EA0C06B4
:100430002037B6FBF4FCA7EB0507103F07F01F0BB6
:10044000CBF120062CFA06F60CFA0BFB44BFB346A0
:100450000026202FA4BF5E464FF0000B5BEA060C7F
:1004600008BF4FF0010B19EB0B0948EB0608ABFB7B
:10047000027C06FB02CC0BFB03CCC01B71EB0C0116
:10048000C1E70B46024641464846BDE8F08B13B52E
:100490004FF000004FF00001AFF30080BDE81C40BA
:1004A00070474FF0000200B5134694469646203937
:1004B00022BFA0E80C50A0E80C50B1F12001BFF41D
:1004C000F7AF090728BFA0E80C5048BF0CC05DF883
:1004D00004EB890028BF40F8042B08BF704748BFD1
:1004E00020F8022B11F0804F18BF00F8012B704745
:1004F000704770477047000000487047180000249C
:100500007546FFF7F9FFAE4605006946534620F0F1
:100510000700854618B020B5FFF738FFBDE820403A
:100520004FF000064FF000074FF000084FF0000BAF
:10053000AC46ACE8C009ACE8C009ACE8C009ACE81E
:10054000C00921F007018D46704710B50446AFF38E
:1005500000802046BDE81040FFF701BF0149182088
:10056000ABBEFEE7260002007047FEE77047EFF3E0
:10057000108072B6FEE700000448816841F0020175
:100580008160016811F4005FFBD070470448025895
:10059000F8B5044600F044FB0546002C00F0B0809E
:1005A00094F83500022840F0AD802768AB4EB74282
:1005B00038463CD0AA488742384638D0A9488742B6
:1005C000384634D0A8488742384630D0A7488742BA
:1005D00038462CD0A6488742384628D0A5488742BE
:1005E000384624D0A4488742384620D0A3488742C2
:1005F00038461CD0A2488742384618D0A1488742C6
:10060000384614D0A0488742384610D09F488742C9
:1006100038460CD09E488742384608D09D488742CD
:10062000384604D09C48874240F0FB809A480168D5
:1006300021F01E01016007F114006FF080010268D3
:10064000B74201EA0201016042D0F44887421CBF70
:10065000F34887423CD0F34887421CBFF2488742A8
:1006600036D0F24887421CBFF148874230D0F1486B
:1006700087421CBFF04887422AD0F04887421CBFFF
:10068000EF48874224D0EF4887421CBFEE4887429C
:100690001ED0EE4887421CBFEE48874218D0EC4877
:1006A00087421CBFEC48874212D0EC4887421CBFEF
:1006B000EB4887420CD0EB4887421CBFEA48874290
:1006C00006D0EA4887421CBFE948874240F0BC8018
:1006D000206E016821F480710160386820F001000B
:1006E0003860386810F0010F10D000F099FA401B04
:1006F0000628F6D320206065032084F8350003E047
:1007000001208CE080206065012085E02068B042F7
:100710001CBFC249884223D0C14988421CBFC1497D
:1007200088421DD0C04988421CBFC049884217D0AA
:10073000BF4988421CBFBF49884211D0BE49884288
:100740001CBFBE4988420BD0BD4988421CBFBD4971
:10075000884205D0BC4988421CBFBE49884264D14A
:10076000A16DE26D3F2302F01F0203FA02F28A60DC
:10077000B04241D0A94988421CBFA94988423BD018
:10078000A84988421CBFA849884235D0A749884259
:100790001CBFA74988422FD0A64988421CBFA64942
:1007A000884229D0A54988421CBFA549884223D048
:1007B000A44988421CBFA44988421DD0A34988424D
:1007C0001CBFA449884217D0A14988421CBFA24936
:1007D000884211D0A14988421CBFA14988420BD050
:1007E000A04988421CBFA049884205D09F49884241
:1007F0001CBF9F4988422CD1D4E919014160E06EA9
:1008000030B1016821F480710160D4E91C014160BC
:10081000012084F835000020002184F8341001B054
:10082000F0BD6FF00E01384609E78849884297D03D
:10083000874AA16D904294D0E26D012302F01F021D
:1008400003FA02F24A6093E78A4887423FF440AFD6
:1008500043E788498842CFD0DAE700BF1000024062
:100860002800024040000240580002407000024050
:1008700088000240A0000240B8000240100402407C
:100880002804024040040240580402407004024020
:1008900088040240A0040240B8040240002853D05B
:1008A00090F8351002294DD101685B4A914229D058
:1008B0005A4B99421CBF5A4B994223D0594B9942EB
:1008C0001CBF594B99421DD0584B99421CBF584BE5
:1008D000994217D0574B99421CBF574B994211D0A0
:1008E000564B99421CBF564B99420BD0554B9942DF
:1008F0001CBF554B994205D0544B99421CBF544BD9
:1009000099423CD10423914280F835301CBF4348C2
:10091000814211D0424881421CBF424881420BD0E3
:10092000414881421CBF4148814205D04048814234
:100930001CBF404881420AD1086820F001000860CD
:10094000002102E0802141650121084670473A48B4
:1009500081421CBF39488142EED0394881421CBFD8
:1009600038488142E8D0384881421CBF374881422C
:10097000E2D0374881421CBF36488142DCE7354B24
:100980009942BFD00A6822F00E020A600A6822F07B
:1009900001020A60304A914211D0304A91421CBF94
:1009A0002F4A91420BD02F4A91421CBF2E4A9142AE
:1009B00005D02E4A91421CBF2D4A914227D1016E8B
:1009C00001230A6822F480720A60D0E9161202F04C
:1009D0001F0203FA02F24A60D0E919124A60C16E9E
:1009E00031B10A6822F480720A60D0E91C124A60B0
:1009F0000021012280F8341080F83520026D002A91
:100A0000A3D080B590470021BDE880409DE7194AFA
:100A10009142D4D0ECE700BF100002402800024011
:100A2000400002405800024070000240880002402E
:100A3000A0000240B8000240100402402804024016
:100A400040040240580402407004024088040240FE
:100A5000B8040240A0040240085402581C54025832
:100A60003054025844540258585402586C54025896
:100A700094540258805402582DE9FC4F604A0A27CA
:100A80004FF0000B4FF0010E4FF0030A4FF00F092B
:100A90004FF0000C002690425A4A08BF0927024432
:100AA0004FEAB223082B38BF4FEAB22700970A68F3
:100AB00032FA06F308BFBDE8FC8F0EFA06F312EA1D
:100AC000030500F096804A6802F00304A4F10108CF
:100AD000B8F1010F18D8D0F80890CF680AFA0CF8CE
:100AE00029EA080807FA0CF74FF00F0947EA080748
:100AF0008760C2F3001707FA06F8476827EA03037E
:100B000043EA0803436001E0032C1DD0C7680AFADA
:100B10000CF3022C27EA03038F6807FA0CF743EA69
:100B20000703C36010D1394C0BF01C0209FA02F321
:100B300004EA56040444276A27EA03030F6907FA04
:100B400002F21A4322624A68076802F003030AFAB3
:100B50000CF412F4403F03FA0CF327EA040443EACE
:100B60000403036045D0824A0BF00C0409FA04F731
:100B70001346126842F002021A601A68244B02F00F
:100B8000020298460192019A26F00302D358BB4311
:100B9000009F07FA04F44FF0B047234342F80830AF
:100BA0003A684C6842EA050314F4801F08BF22EA41
:100BB0000503154A14F4001F3B601746126842EA09
:100BC000050308BF22EA050314F4003F3B60D7F891
:100BD000802042EA050308BF22EA050314F4803F9F
:100BE000C7F88030FA6F42EA050308BF22EA05031E
:100BF000FB670BF1040B0CF1020C013657E700BF49
:100C0000002402580000FEA704000058FCFFFF7FEC
:100C100008040058002A08BF0904816170470000D9
:100C200028488068704700BF2648017882681144D0
:100C30008160704780B5032000F0CCF801F004F823
:100C40000E49874B0A68C2F3032209689A5C01F0D7
:100C50000F01595C02F01F02D0401B4A01F01F0136
:100C60001060C840064908600F2000F00BF808B17A
:100C7000012080BD00F06EF8002080BD18440258AD
:100C80001000002470B50F4E04463078B0B14FF418
:100C90007A71B1FBF0F00C490968B1FBF0F001F09A
:100CA00007FB01250F2C0AD848B94FF0FF30214629
:100CB0000022002500F06CF8746000E00125284651
:100CC00070BD00BF000000240C00002410B5427865
:100CD00012490A608A6822F001028A6042684A600A
:100CE000C37A027B847A90F800C090F808E01B0673
:100CF00043EA0272437A42EAC442447B42EA8442B3
:100D0000847BC07B42EA444242EA004040EA03203E
:100D100040EA4E0040EA0C00886010BD98ED00E00B
:100D20000B48BFF35F8F016821F48031016000211F
:100D300001677047064940F001000867086840F401
:100D400080300860BFF34F8FBFF36F8F704700BFD5
:100D500024ED00E081B00648016841F00201016025
:100D6000006800F002000090009801B0704700BFDA
:100D7000F4440258002808DB00F01F01012240095A
:100D800002FA01F1014A42F82010704700E100E048
:100D900010B5164B1B68C3F3022E0EF1040CAEF116
:100DA00003048EF00703BCF1070F4FF0010C38BFAE
:100DB0000024042B28BF04230CFA03F3013B194041
:100DC0000CFA04F3013BA1401A401143BDE8104066
:100DD00002F050BB05494FF6FF030A681A4060F362
:100DE0000A22034810430860704700BF0CED00E082
:100DF0000000FA05B0B5114D2A68296812F0040FF9
:100E000005D101F00701081A18BF0120B0BD21F07B
:100E1000070108432860FFF703FF044655F8080C54
:100E200010F4005F1CBF0020B0BDFFF7F9FE001BEF
:100E3000B0F57A7F84BF0120B0BDEFE70C480258BF
:100E400080B500F0C3FE0549054A0968C1F30211E7
:100E5000515C01F01F01C84080BD00BF2044025812
:100E6000EE340008B0B53D4DAB6AAA6AE96AEC6B96
:100E7000C1F30011C2F305324942002A01EAD4014C
:100E80006FF35F3100EE101AB8EE400A0BD003F09A
:100E90000303022B0BD06BB9296811F0200F0CD182
:100EA0009FED311A13E00021C0E9001153E09FEDDE
:100EB0002D1A0CE09FED2A1A09E029682B4BC1F38B
:100EC000C10123FA01F101EE101AB8EE411AA96B23
:100ED000AB6B9FED273A04EE102AB7EE006A6FF372
:100EE0005F2102EE101AC3F34621B8EE422AB8EE93
:100EF000444A05EE101A00EE032AB8EE450A81EEC8
:100F0000041A32EE062A30EE060A21EE021A81EEAB
:100F1000000ABCEEC00A80ED000AA96BC1F30641CD
:100F200000EE101AB8EE400A30EE060A81EE000A12
:100F3000BCEEC00A80ED010AA96BC1F3066100EEA8
:100F4000101AB8EE400A30EE060A81EE000ABCEE36
:100F5000C00A10EE101A8160B0BD00BF00440258F4
:100F60000024744A001BB74B0024744C0090D0033B
:100F700000000039B0B53D4DAB6AAA6AE96A6C6CF5
:100F8000C1F30021C2F305524942002A01EAD4010B
:100F90006FF35F3100EE101AB8EE400A0BD003F089
:100FA0000303022B0BD06BB9296811F0200F0CD171
:100FB0009FED311A13E00021C0E9001153E09FEDCD
:100FC0002D1A0CE09FED2A1A09E029682B4BC1F37A
:100FD000C10123FA01F101EE101AB8EE411A296C91
:100FE0002B6C9FED273A04EE102AB7EE006A6FF3E0
:100FF0005F2102EE101AC3F34621B8EE422AB8EE82
:10100000444A05EE101A00EE032AB8EE450A81EEB6
:10101000041A32EE062A30EE060A21EE021A81EE9A
:10102000000ABCEEC00A80ED000A296CC1F306413B
:1010300000EE101AB8EE400A30EE060A81EE000A01
:10104000BCEEC00A80ED010A296CC1F3066100EE16
:10105000101AB8EE400A30EE060A81EE000ABCEE25
:10106000C00A10EE101A8160B0BD00BF00440258E3
:101070000024744A001BB74B0024744C0090D0032A
:10108000000000392DE9F0470446C078AF4F000753
:1010900022D5606E4FEA3051032908D8DFE801F00D
:1010A00002090F17F96941F40031F9610FE00126D7
:1010B00013E004F10800022101F090FC04E004F1C7
:1010C0002800022101F00EFD064630B9606E396C31
:1010D00021F440110843386400266078BA46C007FE
:1010E00001D135462AE0A06D04280BD83546DFE84B
:1010F00000F0030C12181800F869354640F400306F
:10110000F8610EE00125012719E004F10800002133
:1011100001F064FC04E004F12800002101F0E2FC8D
:101120000546002D2F460AD1DAF84000A16D0025B2
:10113000524620F007000843CAF84000374660785E
:1011400040072FD5D4F8A4004FEA705005280CD8DA
:10115000DFE800F0030E141A1A1ADAF81C005146E0
:1011600040F40030CAF81C000EE0012501261AE008
:1011700004F10800002101F031FC04E004F1280032
:10118000002101F0AFFC0546002D2E460BD1DAF808
:101190004800D4F8A4100025524620F4600008430B
:1011A000CAF848003E46607800072FD5D4F8A8005A
:1011B0004FEA306005280CD8DFE800F0030E141A5F
:1011C0001A1ADAF81C00514640F40030CAF81C0024
:1011D0000EE0012501271AE004F10800002101F0CA
:1011E000FDFB04E004F12800002101F07BFC054632
:1011F000002D2F460BD1DAF84800D4F8A8100025AE
:10120000524620F0E0600843CAF848003746E078CC
:10121000800726D5E06C4FEA301003280BD8DFE8B2
:1012200000F013020D13DAF81C00514640F40030B0
:10123000CAF81C0008E00125012613E004F10800AB
:10124000022101F0CBFB0546002D2E460AD1DAF82B
:101250003C00E16C0025524620F030000843CAF8FB
:101260003C003E466078C0062DD5E06D4FEA303038
:1012700004280CD8DFE800F0030E141A1A00DAF87C
:101280001C00514640F40030CAF81C000EE0012555
:10129000012719E004F10800002101F09FFB04E0A0
:1012A00004F12800002101F01DFC0546002D2F4609
:1012B0000AD1DAF84000E16D0025524620F4E04002
:1012C0000843CAF8400037466078800625D5206E6E
:1012D0004FEA304005280AD8DFE800F012030C126C
:1012E000121204F10800012101F078FB07E001254A
:1012F000012613E004F12800012101F0F3FB05466B
:10130000002D2E460AD1DAF84000216E0025524603
:1013100020F4E0200843CAF840003E4660784006CA
:101320002AD5D4F8AC004FEA307005280AD8DFE897
:1013300000F015030F15151504F10800012101F047
:101340004DFB0AE00125012717E000BF10440258B9
:1013500004F12800012101F0C5FB0546002D2F46B0
:101360000BD1DAF84800D4F8AC100025524620F032
:10137000E0400843CAF8480037466078000622D5A6
:10138000E06E98B1B0F1005F0AD0B0F1805F2ED16D
:10139000DAF81C00514640F40030CAF81C0005E0A1
:1013A00004F10800012101F019FB0546002D2E462D
:1013B0000AD1DAF84000E16E0025524620F0405094
:1013C0000843CAF840003E46E078C00702D1B04664
:1013D000574624E0A06C574603280BD8DFE800F0FE
:1013E00014020E14F86940F40030F8610CE0012595
:1013F0000126E9E701254FF0010810E004F108009B
:10140000022101F0EBFA0546002DA84607D1F86B42
:10141000A16C0025B04620F003000843F863A078D3
:10142000400601D4474618E0D7F8F00340F4807036
:10143000C7F8F003FFF7F4FB0646D7F8F00310F403
:10144000807F07D1FFF7ECFB801B6428F5D90325CB
:10145000032702E0002D2F4612D02078C00752D07B
:10146000A06F4FEAF000052837D8DFE800F03F030F
:10147000393F3F3F04F10800012101F0AFFA34E0A9
:10148000DAF86010D4F8B0005346414011F4407FC0
:101490000BD0196E1A6E42F4803221F440711A6634
:1014A0001A6E22F480321A661966B0F5807F40F019
:1014B0006982FFF7B5FB064641F288390325032709
:1014C000DAF86000534610F0020F40F05982FFF73F
:1014D000A7FB801B4845F3D9BFE70125012613E090
:1014E00004F12800012101F0FDFA0546002D2E46E9
:1014F0000AD1DAF84400A16F0025524620F03800E6
:101500000843CAF844003E462078800723D5606F20
:1015100005280AD8DFE800F012030C12121204F1B9
:101520000800012101F05AFA07E00125012713E024
:1015300004F12800012101F0D5FA0546002D2F46BF
:101540000AD1DAF84400616F0025524620F0070006
:101550000843CAF8440037462078400725D5D4F818
:10156000900005280AD8DFE800F012030C121212CE
:1015700004F10800012101F031FA07E001250126FC
:1015800014E004F12800012101F0ACFA0546002D19
:101590002E460BD1DAF84800D4F8901000255246B8
:1015A00020F007000843CAF848003E46207880062D
:1015B00027D5D4F88C004FEA307005280AD8DFE828
:1015C00000F012030C12121204F10800002101F0C5
:1015D00005FA07E00125012714E004F128000221A3
:1015E00001F080FA0546002D2F460BD1DAF84400B1
:1015F000D4F88C100025524620F0E0400843CAF889
:10160000440037462078400627D5D4F898004FEAA2
:10161000B02005280AD8DFE800F012030C121212DD
:1016200004F10800002101F0D9F907E001250126A5
:1016300014E004F12800022101F054FA0546002DBF
:101640002E460BD1DAF84800D4F8981000255246FF
:1016500020F4E0500843CAF848003E4620780006CF
:1016600027D5D4F89C004FEA703005280AD8DFE867
:1016700000F012030C12121204F10800002101F014
:10168000ADF907E00125012714E004F1280002214B
:1016900001F028FA0546002D2F460BD1DAF8480054
:1016A000D4F89C100025524620F460400843CAF844
:1016B00048003746206810F0080F17D0D4F8801083
:1016C000B1F5805F0AD104F12800022101F00AFA85
:1016D000002818BF01272068D4F88010DAF84420C9
:1016E000534622F440521143CAF84410C10617D59C
:1016F000D4F89410B1F5807F0AD104F128000221BA
:1017000001F0F0F9002818BF01272068D4F89410E0
:10171000DAF84820534622F440721143CAF84810C0
:10172000000322D5D4F8A000B0F5003F0FD0B0F5EB
:10173000803F06D088BB04F10800002101F04EF97B
:1017400004E004F12800022101F0CCF90546002D47
:101750002E460BD1DAF84800D4F8A01000255246E6
:1017600020F440300843CAF848003E46A0784007BD
:101770002AD5D4F88400B0F5401F17D0B0F5001F6B
:101780000ED0B0F5801F40F0F680DAF81C0051460C
:1017900040F40030CAF81C0008E001250126E5E706
:1017A00004F12800012101F09DF90546002D2F4686
:1017B0000BD1DAF84400D4F884100025524620F406
:1017C00040100843CAF844003746A078C00701D14A
:1017D0003E4622E0206DB0F5803F08D0D8B9DAF857
:1017E0001C00514640F40030CAF81C0005E004F12A
:1017F0000800022101F0F2F80546002D2E460CD11A
:10180000DAF83C00216D0025524620F48030084370
:10181000CAF83C00DCE701250126216811F0005FD1
:1018200001D1606809E004F12800022101F05AF9B1
:10183000002818BF0126D4E900108A031AD5E26FE8
:101840006FF0010303EB3223022B0BD34FEA322359
:1018500043B1012B40F09280DAF81C3043F400339E
:10186000CAF81C303DB9DAF8443023F440731A4307
:10187000CAF844203546CA0207D5DAF84020236F5B
:1018800022F000421A43CAF840208A0207D5DAF84B
:101890004020A36E22F080721A43CAF840204A000A
:1018A0000CD5DAF8002022F40042CAF80020D4F85F
:1018B000B420DAF800301A43CAF80020B1F1FF3F33
:1018C00007DCDAF83C20636D22F040521A43CAF874
:1018D0003C20090208D5DAF84410D4F8882021F415
:1018E00040011143CAF84410C10708D004F10800B0
:1018F000002101F073F8002818BF054660688107D1
:1019000008D504F10800012101F068F8002818BF8B
:1019100005466068410708D504F10800022101F07E
:101920005DF8002818BF05466068010708D504F176
:101930002800002101F0D6F8002818BF054660688D
:10194000C10608D504F12800012101F0CBF80028D8
:1019500018BF05466068800603D44DB10120BDE87C
:10196000F08704F12800022101F0BCF82843F5D1EA
:101970000020BDE8F0870125012726E701257AE749
:10198000D4F8B000196800F440720025B2F5407F29
:1019900021F47C5102BF054A02EA101211436FF391
:1019A0001F301960196E084318663BE5CFFFFF0032
:1019B0002DE9F84388460446002800F0FD80814B5D
:1019C000186800F00F0040450BD2186820F00F0097
:1019D00040EA08001860186800F00F00404540F029
:1019E000EB802068D04F10F0040F0AD02169BA694B
:1019F00002F07002914281BFBA6922F07002114375
:101A0000B96101070AD56169FA6902F07002914271
:101A100081BFFA6922F070021143F961C1060AD54B
:101A2000A169FA6902F4E062914281BFFA6922F485
:101A3000E0621143F96181060AD5E1693A6A02F070
:101A40007002914281BF3A6A22F0700211433962FA
:101A500081070AD5E168BA6902F00F02914281BF9D
:101A6000BA6922F00F021143B961C10738D0B869D1
:101A7000A16820F470600843B8616068032806D04C
:101A8000022809D1396811F4003F0ED194E0396879
:101A900011F0007F09D18FE03968012802D1C90512
:101AA00003D489E0490740F187803969994621F0DC
:101AB000070108433861FFF7B3F8064641F288355D
:101AC0003869616800F03800B0EBC10F06D0FFF74D
:101AD000A7F8801BA842F3D903206EE020684B468C
:101AE00081070AD5E168BA6902F00F0291423FBF4F
:101AF000BA6922F00F021143B961196801F00F01B0
:101B000041450AD9196821F00F0141EA080119601D
:101B1000196801F00F0141454ED141070AD52169ED
:101B2000BA6902F0700291423FBFBA6922F07002B6
:101B30001143B96101070AD56169FA6902F07002BF
:101B400091423FBFFA6922F070021143F961C10668
:101B50000AD5A169FA6902F4E06291423FBFFA69CD
:101B600022F4E0621143F96180060AD5E069396A1E
:101B700001F0700188423FBF396A21F070010843CB
:101B8000386200F061F8B9692E4A1D4BC1F3032198
:101B9000515C01F01F01C840B969186001F00F01E4
:101BA000515C01F01F01C8401649086006480068F2
:101BB000BDE8F843FFF766B80120C0B201B0BDE848
:101BC000F08300BF002000520400002480B500F024
:101BD0003BF80A491B4B0A68C2F3032209689A5C66
:101BE00001F00F01595C02F01F02D040044A01F0DD
:101BF0001F011060C8400349086080BD18440258A6
:101C00000C0000241000002480B5FFF7DFFF0C4912
:101C10000C4A0968C1F30211515C01F01F01C84070
:101C200080BD00BF80B5FFF7D1FF0549054A0968AF
:101C3000C1F30221515C01F01F01C84080BD00BF0B
:101C40001C440258EE34000837490869C0F3C2004A
:101C5000032811D0022804BF3548704750B90A68DC
:101C6000374812F0200F1FBF0968C1F3C101C840F7
:101C7000704770472D487047D1F828C0886ACB6AF2
:101C80004A6B03F00103C0F305105B42002803EA2E
:101C9000D2026FF35F3200EE102AB8EE400A0BD08A
:101CA0000CF00302022A09D05AB90A6812F0200F78
:101CB0000AD19FED221A11E0002070479FED1E1AF5
:101CC0000CE09FED1C1A09E00A681D4BC2F3C1022B
:101CD00023FA02F201EE102AB8EE411A0A6B096BE0
:101CE0009FED183A04EE100AB7EE005A6FF35F2228
:101CF00002EE102AB8EE422AC1F34620B8EE444A5A
:101D000000EE032A013081EE040A32EE051A02EEDB
:101D1000100AB8EE422A20EE010A80EE020ABCEE5A
:101D2000C00A10EE100A70470044025800093D0036
:101D300000366E010024744A001BB74B0024744C1B
:101D40000090D00300000039F8B50446002800F0E8
:101D50006C812078D14EC00722D12078800740F1D5
:101D60008F803169B06A11F038013ED0182908BF60
:101D70005FEA807039D0E068316800286FD021F0C8
:101D8000190108433060FEF74BFF0546306810F03C
:101D9000040F45D1FEF744FF401B0228F6D9B3E1FA
:101DA0003169B06A01F03801102916D0182904BF32
:101DB00000F00300022810D06068C8B3B0F5803F7F
:101DC00007D03168B0F5A02F40F08A8141F480201F
:101DD0003060306840F4803088E1306810F4003FB3
:101DE000BBD060680028B8D11FE13168E06811F00D
:101DF000040F02D0002800F01881316821F0190189
:101E000008433060FEF70CFF0546306810F0040F01
:101E100006D1FEF705FF411B03200229F5D974E125
:101E20007068216920F0FE4040EA0160706027E0A0
:101E3000306820F480303060306820F480203060DA
:101E4000FEF7EEFE0546306810F4003F3FF485AF24
:101E5000FEF7E6FE411B03206429F4D955E121F089
:101E600001003060FEF7DCFE0546306810F0040F1C
:101E700006D0FEF7D5FE411B03200229F5D944E127
:101E80002078C00630D53169B06A01F038010829E0
:101E90001BD0182904BF00F00300012815D0E16908
:101EA0003068002900F0E78040F080003060FEF7E5
:101EB000B7FE0546306810F4807F0ED1FEF7B0FE05
:101EC000411B03200229F5D91FE1306810F4807FFF
:101ED0001CBFE069802840F0A880F068216A20F0EB
:101EE0007C5040EA0160F0602078000723D56169EA
:101EF000706F79B140F001007067FEF791FE054602
:101F0000706F10F0020F16D1FEF78AFE401B0228F8
:101F1000F6D9F9E020F001007067FEF781FE054672
:101F2000706F10F0020F06D0FEF77AFE411B0320FF
:101F30000229F5D9E9E02078800623D5A169306827
:101F400079B140F480503060FEF76AFE0546306893
:101F500010F4005F16D1FEF763FE401B0228F6D98D
:101F6000D2E020F480503060FEF75AFE054630681B
:101F700010F4005F06D0FEF753FE411B0320022938
:101F8000F5D9C2E02078400751D4676A002F00F0ED
:101F90003581306900F03800182840F08180B16A3E
:101FA000306B012F41D0A26A01F0030393423CD170
:101FB000E26AC1F30511914237D1226B01466FF3FA
:101FC0005F21013A914230D1C0F34621626B013A60
:101FD00091422AD1C0F30641A26B013A914224D129
:101FE000C0F30660E16B013988421ED1706BA16CB1
:101FF000C0F3CC00814200F00181F06A20F00100C2
:10200000F062FEF70DFE0546FEF70AFEA842FBD081
:10201000706B4FF6F8718843A16C40EAC1007063A1
:10202000F06A40F00100F062E8E001206DE0D6F8CF
:10203000000440F48070C6F80004FEF7F1FD054688
:10204000D6F8000410F4807F05D1FEF7E9FD401BAF
:102050006428F5D958E0A068002859D0012806D096
:10206000316F052840F0CC8041F004003067306FBC
:1020700040F00100CAE020F080003060FEF7D0FDA3
:102080000546306810F4807F3FF42EAFFEF7C8FDA0
:10209000411B03200229F4D937E000BF0044025855
:1020A000306820F080703060FEF7BAFD0546022FE0
:1020B0000AD1306810F0007F43D0FEF7B1FD411B1C
:1020C00003200229F5D920E0306810F0007F00F0ED
:1020D0009580FEF7A5FD411B03200229F4D914E0E9
:1020E00021F480303060306820F480203060FEF7CA
:1020F00097FD0546306810F4003F7FF42EAEFEF7E2
:102100008FFD401B6428F5D90320C0B201B0F0BD9B
:10211000306F20F001003067306F20F0040030672E
:10212000FEF77EFD054641F28837306F10F0020F52
:102130003FF42BAFFEF774FD411B0320B942F4D9E5
:10214000E3E7B06A40F2F33104F130034FF4FE07E5
:102150008843D4E90A12084340EA0210B0620FCB68
:102160007F3100F2FF107F3249026FF35F2007EAF0
:10217000024289B2084303F17F0110434FF0FE424F
:1021800002EA016108434FF6F8713063F06A20F00B
:102190000100F062706B8843A16C40EAC10070637B
:1021A000F06A216C20F00C000843F062F06A616C68
:1021B00020F002000843F062F06A40F48030F062E0
:1021C000F06A40F40030F062F06A40F48020F0627F
:1021D000F06A40F00100F062306840F080703060DA
:1021E000FEF71EFD0446306810F0007F06D1FEF7B2
:1021F00017FD011B03200229F5D986E7002084E79B
:1022000021F001003067306F20F004003067FEF7E6
:1022100007FD054641F28837306F10F0020F7FF45A
:10222000B4AEFEF7FDFC411B0320B942F4D96CE7C4
:10223000F8B51E4615460F460446D0B1D4F88800BE
:1022400028B9002084F88400204600F083FA242076
:10225000C4F888002068016821F001010160A06ACB
:1022600010B1204600F0A4FD204600F09DFE01289C
:1022700002D1012001B0F0BD2068816841F48041A5
:102280008160816821F40041394381603104026832
:1022900041EA45516FF3194211430160016841F071
:1022A000010101602046BDE8F44000F0EBBD0000F4
:1022B000411E0020B0EB116F1CBF01207047044A83
:1022C000F023516003490B70072190601160704743
:1022D00010E000E023ED00E090F88410012901D126
:1022E000022112E02421C0F88810026813681168E6
:1022F00021F0010123F000531160002141661360B9
:10230000202280F88410C0F88820C8B27047704737
:102310007047B0B5044690F88400012801D102202E
:102320001BE02420C4F88800012084F88400206881
:102330000568026822F001020260826822F0606291
:1023400011438160204600F009FD206820210560CE
:10235000002084F88400C4F88810C0B2B0BDB0B5C5
:10236000044690F88400012801D102201BE02420BB
:10237000C4F88800012084F8840020680568026899
:1023800022F001020260826822F060421143816003
:10239000204600F0E3FC206820210560002084F83E
:1023A0008400C4F88810C0B2B0BD70477047704751
:1023B00070B50446006840F60F01C2690346D0F8C4
:1023C00000E053F808CF0A424AD0C5490EEA010599
:1023D000C44901EA0C010D434CD0D5071FBF1EF4C0
:1023E000807501250562D4F890501CBF45F00105A9
:1023F000C4F8905096070CF0010508D53DB10226AF
:102400000662D4F8906046F00406C4F8906056075F
:1024100008D53DB104250562D4F8905045F0020579
:10242000C4F8905015070CD50EF0200529431FBFA6
:1024300008210162D4F8901041F0080118BFC4F8D7
:102440009010110569D51EF0806166D04FF40061CF
:102450002546016255F8900F40F0200028605EE0AC
:10246000910607D50EF020010CF08053194301D0DE
:10247000616FF0E0E36E0EEA020111F0100F3DD043
:10248000012B3BD110210162816811F0400F40F017
:102490008780B4F85E10B4F85C20B4F85E30002B8E
:1024A00000F01081511A0A0401D10BE1206850E8B4
:1024B000000F226820F4907042E80003002BF5D151
:1024C0008A48226852E8022F2368024043E8022625
:1024D000002EF6D12020C4F88C0000206067E06652
:1024E000206850E8000F226820F0100042E8000346
:1024F000002BF5D1022089B220679EE0D30240F183
:10250000A1801CF4800300F09D804FF480110162D3
:102510002046BDE87040FFF749BF04F190052868E8
:10252000002800F0CF8090060DD50EF020000CF0B2
:10253000805108431CBF616F002904D020468847A2
:10254000206800F108032868196800F0280001F0ED
:102550004001084300F08980204600F0F7FC206825
:10256000816811F0400F01D17AE0206850E8020F35
:10257000216820F0400041E80202002AF5D1D4F899
:10258000800000286CD058490165FEF787F90028C3
:1025900000F09880D4F88000016DBDE870400847D5
:1025A000D4F8803019684D68B4F85C20A9B20029CD
:1025B00000F08280914280F07F80A4F85E50D9695B
:1025C000B1F5807F01D132E0206850E8000F21682A
:1025D00020F4807041E80002002AF5D1206850E81C
:1025E000020F216820F0010041E80202002AF5D123
:1025F000206850E8020F216820F0400041E8020204
:10260000002AF5D12020C4F88C000020E066206864
:1026100050E8000F216820F0100041E80002002A75
:10262000F5D1D4F88000FDF7B3FFB4F85C200220A8
:102630002067B4F85E00101A81B22046BDE87040F1
:10264000FFF765BE130617D50EF080030CF40006E5
:10265000334311D0A16FA9B32046BDE870400847AD
:102660002046BDE87040FFF7A2BE2046FFF79FFE60
:102670000020C4F8900070BD49060AD4100222D58B
:102680001EF080401FD02046BDE87040FFF78DBE91
:10269000206850E8000F216820F0400041E8000267
:1026A000002AF5D10020A0672020C4F88800204629
:1026B000BDE8704000F0E2B88A4204BFD869B0F5C6
:1026C000807F0AD070BDD001FCD5BEF1FF3FF9DCA0
:1026D0002046BDE87040FFF71BBE02200CE700BF9C
:1026E0002001000401000010412F0008FEFFFFEF51
:1026F00010B50446D0B1D4F8880028B9002084F879
:102700008400204600F026F82420C4F888002068C1
:10271000016821F001010160A06A10B1204600F0BB
:1027200047FB204600F040FC012801D1012010BDEC
:102730002068416821F490414160816821F02A01BC
:102740008160016841F0010101602046BDE8104050
:1027500000F098BB2DE9F041B6B0044631A8142131
:10276000FDF79FFE02A8B821FDF79BFE206898495F
:10277000884232D07A4988427CD10024022502A8BE
:10278000039402951F94FEF77DFC08B1FDF7EFFE60
:102790005948816841F400318160816801F4003159
:1027A00001910199016841F00801016031A90068B7
:1027B00000F00800019001983295602031900720C8
:1027C000CDE9334435904D48FEF756F926200021D7
:1027D0000022FEF7DDFA26204AE000264FF002082C
:1027E00002A80396CDF808801F96FEF74BFC08B1AF
:1027F000FDF7BDFE4048414C31AD0727816841F4EB
:1028000080218160816801F4802101910199016832
:1028100041F002010160016801F00201019101999A
:10282000016841F0080101602946006800F00800D5
:1028300001900198CDF8C8804FF480403190A4F504
:102840000060CDE933663597FEF716F94FF4407016
:10285000CDF8C880294631902046CDE933663597BA
:10286000FEF70AF9272000210022FEF791FA27201F
:10287000FEF780FA36B0BDE8F08100BF7047FEE792
:1028800070B586B01C4800251C4C0022102605950A
:10289000016841F080010160016801F08001009150
:1028A0000099016841F002010160016801F0020134
:1028B00000910099016841F008010160016801F090
:1028C000080100910099016841F0010101601021A7
:1028D000006800F00100009000982046FEF79AF989
:1028E000012001A9CDE901602046CDE90355FEF79D
:1028F000C3F806B070BD00BFE0440258000C025897
:1029000010B5164C3148164900220C23C4E90010BA
:1029100004F118001421C4E90222C4E90423FDF7DC
:10292000C0FD2046FFF7E4FE08B1FDF720FE0B488E
:102930000021FFF714FD08B1FDF719FE074800213B
:10294000FFF7E7FC08B1FDF712FE0448FFF7C4FCEF
:1029500018B1BDE81040FDF70ABE10BD7800002494
:102960000044004010B5184C1848194900220C23A7
:10297000C4E9001004F118001421C4E90222C4E9DA
:102980000423FDF78EFD2046002100220023FFF7DF
:102990004FFC08B1FDF7EBFD0B480021FFF7DFFC12
:1029A00008B1FDF7E4FD08480021FFF7B2FC08B1CB
:1029B000FDF7DDFD0448FFF78FFC18B1BDE81040BE
:1029C000FDF7D5BD10BD00BF0C01002400093D007E
:1029D00000480040FEE7FEE770470000F8B5DA4F18
:1029E00005460C46B86A00F00300032801D1012017
:1029F00075E0386820F080603860FEF711F906460F
:102A0000386810F0006F05D0FEF70AF9801B022825
:102A1000F6D961E0B86A29682B1D4FF4FE06002C38
:102A200020F47C3040EA0130B8620FCB01F17F0125
:102A300000F2FF1002F17F024FEA41216FF35F20A5
:102A400006EA024289B240EA010003F17F0140EA4E
:102A500002004FF0FE4202EA016140EA0100B86361
:102A6000F86A696920F0C00040EA0100F862F86A7B
:102A7000A96920F0200040EA01004FF6F871F862E1
:102A8000F86A20F01000F862F86B20EA0100E969AA
:102A900040EAC100F863F86A40F01000F86207D01D
:102AA000F86A012C14BF40F4001040F4801002E0DA
:102AB000F86A40F40020F862386840F080603860BE
:102AC000FEF7AEF80446386810F0006F06D1FEF746
:102AD000A7F8001B0328F6D3032000E00020C0B2B3
:102AE00001B0F0BDF8B5984F05460C46B86A00F045
:102AF0000300032801D1012075E0386820F08050E0
:102B00003860FEF78DF80646386810F0005F05D093
:102B1000FEF786F8801B0228F6D961E0B86A2968BA
:102B20002B1D4FF4FE06002C20F07C7040EA015073
:102B3000B8620FCB01F17F0100F2FF1002F17F02BA
:102B40004FEA41216FF35F2006EA024289B240EA70
:102B5000010003F17F0140EA02004FF0FE4202EA69
:102B6000016140EA01003864F86A696920F4406054
:102B700040EA0100F862F86AA96920F4007040EAAE
:102B800001004FF6F871F862F86A20F48070F8627C
:102B9000786C20EA0100E96940EAC1007864F86ACB
:102BA00040F48070F86207D0F86A012C14BF40F03E
:102BB000807040F4000002E0F86A40F48000F8629F
:102BC000386840F080503860FEF72AF804463868CC
:102BD00010F0005F06D1FEF723F8001B0328F6D3A0
:102BE000032000E00020C0B201B0F0BD7047FEF746
:102BF0001BB8000010B59CB009A84C21FDF751FC92
:102C000001A82021FDF74DFC0220FEF7F3F800207B
:102C100000902148016821F440410160016801F4FD
:102C2000404100910099016811F4005FFBD04FF41E
:102C300080300221282200240A9001200990CDE949
:102C400012111491CDE915200C20CDE9171119901E
:102C500009A8CDE91A44FFF777F818B1EFF310800F
:102C600072B6FEE703204FF4806102903F2001908E
:102C70000820039404904020CDE90500CDE9071019
:102C800001A80321FEF794FE18B1EFF3108072B68D
:102C9000FEE71CB010BD00BF184802582848016864
:102CA00041F4700101602748016801F00F01062915
:102CB0009FBF0168072262F30301016010B522493A
:102CC000224C0A6842F001020A6000220A610B6885
:102CD00023400B60036813F0080F1FBF036807242D
:102CE00064F3030303608A61CA610A62184B8B6252
:102CF000184BCB62184B0B634A638B63CA630B643C
:102D00004A640B6823F480230B600A66D1F8D42050
:102D100012F4805FBDE8104018BF7047D1F8D4208E
:102D200043F2D20342F48052C1F8D4204FF400524F
:102D30008350D1F8D40020F48050C1F8D4007047FB
:102D400088ED00E000200052004402587FEDF6EAD2
:102D5000000202020000FF0180020101416ED9B1B0
:102D600080B50268DFF840C0DFF840E09168C1F349
:102D7000426192681CF801301EF80110520F0901DF
:102D8000B1FBF3F11CF802301EF802201201B2FB75
:102D9000F3F2BDE8804001E001220121A0F86810B3
:102DA000A0F86A20704700BF1E35000816350008DD
:102DB000816A11F0080F08D002685368D0F838C053
:102DC00023F4004343EA0C035360CA0708D00268A7
:102DD0005368D0F82CC023F4003343EA0C0353604B
:102DE0008A0708D502685368D0F830C023F48033CE
:102DF00043EA0C0353604A0708D502685368D0F8C9
:102E000034C023F4802343EA0C035360CA0608D578
:102E100002689368D0F83CC023F4805343EA0C0363
:102E200093608A0608D502689368D0F840C023F4FE
:102E3000005343EA0C03936080B54A0615D5D0F8D9
:102E400000E0DEF804C0436C2CF48012B3F5801F60
:102E500042EA0302CEF8042007D1DEF80420836C96
:102E600022F4C0021A43CEF804200906BDE88040CF
:102E700058BF704701684A68C06C22F400221043B2
:102E800048607047BCB504460020C4F89000FDF7C8
:102E9000C7FE05462068016811F0080F18D02748C2
:102EA0004FF4001100222B460090204600F084FAD7
:102EB00068B1206850E8000F216820F0800041E8E8
:102EC0000002002AF5D12020C4F8880025E02068FF
:102ED000006810F0040F22D018484FF4800100223F
:102EE0002B460090204600F067FAC0B1206850E8F9
:102EF000000F216820F4907041E80002002AF5D10B
:102F0000206850E8020F216820F0010041E8020229
:102F1000002AF5D12020C4F88C00032007E02020EF
:102F2000C4F88800C4F88C000020E0662067002107
:102F3000C0B284F8841002B0B0BD00BFFFFFFF0133
:102F4000806B0021A0F85E10FFF731BA016851E8EC
:102F5000001F026821F4907142E80013002BF5D1A4
:102F600010B5104C026852E8022F0368224043E873
:102F700002210029F6D1C16E0129BDE8104009D116
:102F8000016851E8001F026821F0100142E80013B7
:102F9000002BF5D12021C0F88C1000214167C166BB
:102FA000704700BFFEFFFFEFFEB504460168806872
:102FB000994ED4E90423E56910430A681843974BF6
:102FC00028431A40104308604868E26820F44050E3
:102FD0001043934A4860A069A2F50E339446994283
:102FE0001CBF226A10438A68324010438860C86A56
:102FF000626A20F00F001043C8628A48814235D0CF
:10300000894881423FD08948814249D088488142DD
:1030100000F053808748814200F05C8086488142FE
:1030200000F065808548814200F06D8084488142CF
:1030300000F075808348814200F07D8082488142A3
:1030400000F085808148814240F08F808048006890
:10305000C0F3C200052800F288800126DFE810F0E6
:103060008E008300870089008B008D0078480068FF
:1030700000F00700052800F278800026DFE800F065
:103080007E7377797B7D7248006800F00700052821
:1030900000F26B800026DFE800F071666A6C6E70EB
:1030A0006B48006800F00700052800F25E800026EB
:1030B000DFE800F064595D5F61636548006800F017
:1030C0000700052800F251800026DFE800F0574C89
:1030D000505254565E48006800F00700052800F280
:1030E00044800026DFE800F04A3F43454749AD48A9
:1030F000006800F00700052837D80026DFE800F058
:103100003E3337393B3DA748406800F007000528AB
:103110002BD80226DFE800F032272B2D2F31A148D3
:103120000068C0F3C20005281FD80126DFE800F0C0
:10313000261B1F2123259B480068C0F3C2000528D9
:1031400013D80126DFE800F01A0F13151719954858
:103150000068C0F3C200052807D80126DFE800F0A8
:103160000E0307090B0D042608E0802606E008265A
:1031700004E0102602E0202600E040268A4899421A
:1031800013D00121B5F5004F1FD1082E29D8DFE853
:1031900016F009009D0000010001A00000010001DF
:1031A0000001A400FEF730FD9BE0402E31D0042E3C
:1031B00050D0082E52D0102E59D0202E62D0022E80
:1031C00040F0E680FDF73CFE4CE0082E15D8DFE825
:1031D00006F0058CE0E08FE0E0E09300FEF714FDE0
:1031E0008EE0102E00F09080202E00F09880402E6F
:1031F00040F0CF804FF4004091E0102E00F0A88006
:10320000202E00F0B080402E40F0C3804FF40040EC
:10321000A9E04FF4004035E0FFF4FF11F369FFCF60
:10322000004402580044004000480040004C004068
:103230000050004000780040007C0040000C005826
:103240000014014000180140001C01400010014022
:10325000544402586846FDF705FE02E06846FDF753
:1032600089FE0198002800F09180626A0AE0DCF88B
:1032700000104E4811F0200F1EBFDCF80010C1F303
:10328000C101C8404A49656831F8122005EB45077D
:103290000121B0FBF2F3BB427BD32F03BB4278D8B2
:1032A00000210023FDF786F809022A46002341EA9F
:1032B0001061000210EB550041F10001FDF77AF8B2
:1032C0003C4AA0F54071914240D961E0FEF7AAFC6A
:1032D00007E06846FDF7C6FD02E06846FDF74AFED6
:1032E0000198002852D0626A19E0FEF79BFC07E0C3
:1032F0006846FDF7B7FD02E06846FDF73BFE019822
:10330000002843D0626A2EE0DCF80010274811F054
:10331000200F1EBFDCF80010C1F3C101C8402449D2
:1033200031F81210B0FBF1F061684A0802EB40007E
:103330004FF6EF72B0FBF1F0A0F11001914227D8E7
:103340004FF6F0710140C0F34200084321681CE0D1
:10335000DCF80010154811F0200F1EBFDCF800103B
:10336000C1F3C101C840124931F812104FF6EF7293
:10337000B0FBF1F0616800EB5100B0FBF1F0A0F19F
:103380001001914204D8216880B2C860002100E099
:1033900001214FF001120020A266C4E91D00084679
:1033A00003B0F0BD5444025800093D000090D00322
:1033B000FE340008FFFC0F002DE9F843DDF82090F3
:1033C00004460068984616460F4609F10105C16992
:1033D0003940C91BB1FA81F14909B1422AD1002D06
:1033E000F5D0FDF71DFC0321B9F1000F23D0A0EBB0
:1033F000080048451FD82068016811F0040FE6D086
:10340000402F18BF802FE2D0C16911F0080F16D1EC
:10341000C16911F4006FDAD04FF4006101622046F7
:10342000FFF794FD0020032184F884002020C4F8D5
:10343000900000E00021C8B201B0BDE8F08308258B
:1034400005622046FFF782FD0020012184F88400F8
:10345000C4F89050EFE700000148FEF7A9BF00BF95
:10346000780000240148FEF7A3BF00BF0C01002430
:10347000FEE7000010B5074C054A00F00F03B0F15D
:10348000FF3F2344C8BF83180801187010BD00BF58
:1034900000E400E014ED00E0F8B501200090FDF735
:1034A0003FFC0020019048F21F70029040F2011092
:1034B00003906846FDF70AFC0420FDF73BFCFDF78E
:1034C000B9FBFFF797FBFFF7DBF9FFF719FAFFF7F7
:1034D00049FAFEE7F1EE100A4FF6FF71C0F2C03173
:1034E00020EA010040F04070E1EE100A7047000051
:1034F0000000010203040102030406070809010099
:1035000002000400060008000A000C001000200061
:1035100040008000000101010103070100000804D0
:1035200002040801010100005835000800000024D1
:1035300018000000080300085835000800000020AB
:10354000000400002403000870350008180000245F
:1035500088030000240300080100000010000000A0
:10356000000000000090D0030090D0030000000095
:04000005080002CD20
:00000001FF
